{
  "_format": "hh-sol-artifact-1",
  "contractName": "TTXToken",
  "sourceName": "contracts/TTXToken.sol",
  "abi": [
    {
      "inputs": [
        {
          "internalType": "string",
          "name": "name",
          "type": "string"
        },
        {
          "internalType": "string",
          "name": "symbol",
          "type": "string"
        },
        {
          "internalType": "uint256",
          "name": "initialSupply",
          "type": "uint256"
        },
        {
          "internalType": "address",
          "name": "_stakingPool",
          "type": "address"
        },
        {
          "internalType": "address",
          "name": "_liquidityPool",
          "type": "address"
        },
        {
          "internalType": "address",
          "name": "_treasuryPool",
          "type": "address"
        },
        {
          "internalType": "address",
          "name": "_developmentPool",
          "type": "address"
        }
      ],
      "stateMutability": "nonpayable",
      "type": "constructor"
    },
    {
      "anonymous": false,
      "inputs": [
        {
          "indexed": true,
          "internalType": "address",
          "name": "owner",
          "type": "address"
        },
        {
          "indexed": true,
          "internalType": "address",
          "name": "spender",
          "type": "address"
        },
        {
          "indexed": false,
          "internalType": "uint256",
          "name": "value",
          "type": "uint256"
        }
      ],
      "name": "Approval",
      "type": "event"
    },
    {
      "anonymous": false,
      "inputs": [
        {
          "indexed": true,
          "internalType": "address",
          "name": "account",
          "type": "address"
        },
        {
          "indexed": false,
          "internalType": "bool",
          "name": "isExempt",
          "type": "bool"
        }
      ],
      "name": "ExemptionUpdated",
      "type": "event"
    },
    {
      "anonymous": false,
      "inputs": [
        {
          "indexed": true,
          "internalType": "address",
          "name": "from",
          "type": "address"
        },
        {
          "indexed": true,
          "internalType": "address",
          "name": "to",
          "type": "address"
        },
        {
          "indexed": false,
          "internalType": "uint256",
          "name": "amount",
          "type": "uint256"
        }
      ],
      "name": "FeeCollected",
      "type": "event"
    },
    {
      "anonymous": false,
      "inputs": [
        {
          "indexed": false,
          "internalType": "uint256",
          "name": "staking",
          "type": "uint256"
        },
        {
          "indexed": false,
          "internalType": "uint256",
          "name": "liquidity",
          "type": "uint256"
        },
        {
          "indexed": false,
          "internalType": "uint256",
          "name": "treasury",
          "type": "uint256"
        },
        {
          "indexed": false,
          "internalType": "uint256",
          "name": "development",
          "type": "uint256"
        }
      ],
      "name": "FeeDistributed",
      "type": "event"
    },
    {
      "anonymous": false,
      "inputs": [
        {
          "indexed": false,
          "internalType": "uint256",
          "name": "transferFee",
          "type": "uint256"
        },
        {
          "indexed": false,
          "internalType": "uint256",
          "name": "tradingFee",
          "type": "uint256"
        }
      ],
      "name": "FeesUpdated",
      "type": "event"
    },
    {
      "anonymous": false,
      "inputs": [
        {
          "indexed": true,
          "internalType": "address",
          "name": "previousOwner",
          "type": "address"
        },
        {
          "indexed": true,
          "internalType": "address",
          "name": "newOwner",
          "type": "address"
        }
      ],
      "name": "OwnershipTransferred",
      "type": "event"
    },
    {
      "anonymous": false,
      "inputs": [
        {
          "indexed": false,
          "internalType": "address",
          "name": "account",
          "type": "address"
        }
      ],
      "name": "Paused",
      "type": "event"
    },
    {
      "anonymous": false,
      "inputs": [
        {
          "indexed": false,
          "internalType": "address",
          "name": "staking",
          "type": "address"
        },
        {
          "indexed": false,
          "internalType": "address",
          "name": "liquidity",
          "type": "address"
        },
        {
          "indexed": false,
          "internalType": "address",
          "name": "treasury",
          "type": "address"
        },
        {
          "indexed": false,
          "internalType": "address",
          "name": "development",
          "type": "address"
        }
      ],
      "name": "PoolsUpdated",
      "type": "event"
    },
    {
      "anonymous": false,
      "inputs": [
        {
          "indexed": true,
          "internalType": "address",
          "name": "pair",
          "type": "address"
        },
        {
          "indexed": false,
          "internalType": "bool",
          "name": "isTradingPair",
          "type": "bool"
        }
      ],
      "name": "TradingPairUpdated",
      "type": "event"
    },
    {
      "anonymous": false,
      "inputs": [
        {
          "indexed": true,
          "internalType": "address",
          "name": "from",
          "type": "address"
        },
        {
          "indexed": true,
          "internalType": "address",
          "name": "to",
          "type": "address"
        },
        {
          "indexed": false,
          "internalType": "uint256",
          "name": "value",
          "type": "uint256"
        }
      ],
      "name": "Transfer",
      "type": "event"
    },
    {
      "anonymous": false,
      "inputs": [
        {
          "indexed": false,
          "internalType": "address",
          "name": "account",
          "type": "address"
        }
      ],
      "name": "Unpaused",
      "type": "event"
    },
    {
      "inputs": [],
      "name": "FEE_DENOMINATOR",
      "outputs": [
        {
          "internalType": "uint256",
          "name": "",
          "type": "uint256"
        }
      ],
      "stateMutability": "view",
      "type": "function"
    },
    {
      "inputs": [],
      "name": "MAX_FEE",
      "outputs": [
        {
          "internalType": "uint256",
          "name": "",
          "type": "uint256"
        }
      ],
      "stateMutability": "view",
      "type": "function"
    },
    {
      "inputs": [
        {
          "internalType": "address",
          "name": "owner",
          "type": "address"
        },
        {
          "internalType": "address",
          "name": "spender",
          "type": "address"
        }
      ],
      "name": "allowance",
      "outputs": [
        {
          "internalType": "uint256",
          "name": "",
          "type": "uint256"
        }
      ],
      "stateMutability": "view",
      "type": "function"
    },
    {
      "inputs": [
        {
          "internalType": "address",
          "name": "spender",
          "type": "address"
        },
        {
          "internalType": "uint256",
          "name": "amount",
          "type": "uint256"
        }
      ],
      "name": "approve",
      "outputs": [
        {
          "internalType": "bool",
          "name": "",
          "type": "bool"
        }
      ],
      "stateMutability": "nonpayable",
      "type": "function"
    },
    {
      "inputs": [
        {
          "internalType": "address",
          "name": "account",
          "type": "address"
        }
      ],
      "name": "balanceOf",
      "outputs": [
        {
          "internalType": "uint256",
          "name": "",
          "type": "uint256"
        }
      ],
      "stateMutability": "view",
      "type": "function"
    },
    {
      "inputs": [
        {
          "internalType": "uint256",
          "name": "amount",
          "type": "uint256"
        }
      ],
      "name": "burn",
      "outputs": [],
      "stateMutability": "nonpayable",
      "type": "function"
    },
    {
      "inputs": [],
      "name": "decimals",
      "outputs": [
        {
          "internalType": "uint8",
          "name": "",
          "type": "uint8"
        }
      ],
      "stateMutability": "view",
      "type": "function"
    },
    {
      "inputs": [
        {
          "internalType": "address",
          "name": "spender",
          "type": "address"
        },
        {
          "internalType": "uint256",
          "name": "subtractedValue",
          "type": "uint256"
        }
      ],
      "name": "decreaseAllowance",
      "outputs": [
        {
          "internalType": "bool",
          "name": "",
          "type": "bool"
        }
      ],
      "stateMutability": "nonpayable",
      "type": "function"
    },
    {
      "inputs": [],
      "name": "developmentPool",
      "outputs": [
        {
          "internalType": "address",
          "name": "",
          "type": "address"
        }
      ],
      "stateMutability": "view",
      "type": "function"
    },
    {
      "inputs": [],
      "name": "developmentPoolPercent",
      "outputs": [
        {
          "internalType": "uint256",
          "name": "",
          "type": "uint256"
        }
      ],
      "stateMutability": "view",
      "type": "function"
    },
    {
      "inputs": [
        {
          "internalType": "address",
          "name": "spender",
          "type": "address"
        },
        {
          "internalType": "uint256",
          "name": "addedValue",
          "type": "uint256"
        }
      ],
      "name": "increaseAllowance",
      "outputs": [
        {
          "internalType": "bool",
          "name": "",
          "type": "bool"
        }
      ],
      "stateMutability": "nonpayable",
      "type": "function"
    },
    {
      "inputs": [
        {
          "internalType": "address",
          "name": "",
          "type": "address"
        }
      ],
      "name": "isExemptFromFee",
      "outputs": [
        {
          "internalType": "bool",
          "name": "",
          "type": "bool"
        }
      ],
      "stateMutability": "view",
      "type": "function"
    },
    {
      "inputs": [
        {
          "internalType": "address",
          "name": "",
          "type": "address"
        }
      ],
      "name": "isTradingPair",
      "outputs": [
        {
          "internalType": "bool",
          "name": "",
          "type": "bool"
        }
      ],
      "stateMutability": "view",
      "type": "function"
    },
    {
      "inputs": [],
      "name": "liquidityPool",
      "outputs": [
        {
          "internalType": "address",
          "name": "",
          "type": "address"
        }
      ],
      "stateMutability": "view",
      "type": "function"
    },
    {
      "inputs": [],
      "name": "liquidityPoolPercent",
      "outputs": [
        {
          "internalType": "uint256",
          "name": "",
          "type": "uint256"
        }
      ],
      "stateMutability": "view",
      "type": "function"
    },
    {
      "inputs": [],
      "name": "name",
      "outputs": [
        {
          "internalType": "string",
          "name": "",
          "type": "string"
        }
      ],
      "stateMutability": "view",
      "type": "function"
    },
    {
      "inputs": [],
      "name": "owner",
      "outputs": [
        {
          "internalType": "address",
          "name": "",
          "type": "address"
        }
      ],
      "stateMutability": "view",
      "type": "function"
    },
    {
      "inputs": [],
      "name": "pause",
      "outputs": [],
      "stateMutability": "nonpayable",
      "type": "function"
    },
    {
      "inputs": [],
      "name": "paused",
      "outputs": [
        {
          "internalType": "bool",
          "name": "",
          "type": "bool"
        }
      ],
      "stateMutability": "view",
      "type": "function"
    },
    {
      "inputs": [],
      "name": "renounceOwnership",
      "outputs": [],
      "stateMutability": "nonpayable",
      "type": "function"
    },
    {
      "inputs": [
        {
          "internalType": "address",
          "name": "account",
          "type": "address"
        },
        {
          "internalType": "bool",
          "name": "exempt",
          "type": "bool"
        }
      ],
      "name": "setFeeExemption",
      "outputs": [],
      "stateMutability": "nonpayable",
      "type": "function"
    },
    {
      "inputs": [
        {
          "internalType": "address",
          "name": "pair",
          "type": "address"
        },
        {
          "internalType": "bool",
          "name": "isTradingPairAddress",
          "type": "bool"
        }
      ],
      "name": "setTradingPair",
      "outputs": [],
      "stateMutability": "nonpayable",
      "type": "function"
    },
    {
      "inputs": [],
      "name": "stakingPool",
      "outputs": [
        {
          "internalType": "address",
          "name": "",
          "type": "address"
        }
      ],
      "stateMutability": "view",
      "type": "function"
    },
    {
      "inputs": [],
      "name": "stakingPoolPercent",
      "outputs": [
        {
          "internalType": "uint256",
          "name": "",
          "type": "uint256"
        }
      ],
      "stateMutability": "view",
      "type": "function"
    },
    {
      "inputs": [],
      "name": "symbol",
      "outputs": [
        {
          "internalType": "string",
          "name": "",
          "type": "string"
        }
      ],
      "stateMutability": "view",
      "type": "function"
    },
    {
      "inputs": [],
      "name": "totalSupply",
      "outputs": [
        {
          "internalType": "uint256",
          "name": "",
          "type": "uint256"
        }
      ],
      "stateMutability": "view",
      "type": "function"
    },
    {
      "inputs": [],
      "name": "tradingFee",
      "outputs": [
        {
          "internalType": "uint256",
          "name": "",
          "type": "uint256"
        }
      ],
      "stateMutability": "view",
      "type": "function"
    },
    {
      "inputs": [
        {
          "internalType": "address",
          "name": "to",
          "type": "address"
        },
        {
          "internalType": "uint256",
          "name": "amount",
          "type": "uint256"
        }
      ],
      "name": "transfer",
      "outputs": [
        {
          "internalType": "bool",
          "name": "",
          "type": "bool"
        }
      ],
      "stateMutability": "nonpayable",
      "type": "function"
    },
    {
      "inputs": [],
      "name": "transferFee",
      "outputs": [
        {
          "internalType": "uint256",
          "name": "",
          "type": "uint256"
        }
      ],
      "stateMutability": "view",
      "type": "function"
    },
    {
      "inputs": [
        {
          "internalType": "address",
          "name": "from",
          "type": "address"
        },
        {
          "internalType": "address",
          "name": "to",
          "type": "address"
        },
        {
          "internalType": "uint256",
          "name": "amount",
          "type": "uint256"
        }
      ],
      "name": "transferFrom",
      "outputs": [
        {
          "internalType": "bool",
          "name": "",
          "type": "bool"
        }
      ],
      "stateMutability": "nonpayable",
      "type": "function"
    },
    {
      "inputs": [
        {
          "internalType": "address",
          "name": "newOwner",
          "type": "address"
        }
      ],
      "name": "transferOwnership",
      "outputs": [],
      "stateMutability": "nonpayable",
      "type": "function"
    },
    {
      "inputs": [],
      "name": "treasuryPool",
      "outputs": [
        {
          "internalType": "address",
          "name": "",
          "type": "address"
        }
      ],
      "stateMutability": "view",
      "type": "function"
    },
    {
      "inputs": [],
      "name": "treasuryPoolPercent",
      "outputs": [
        {
          "internalType": "uint256",
          "name": "",
          "type": "uint256"
        }
      ],
      "stateMutability": "view",
      "type": "function"
    },
    {
      "inputs": [],
      "name": "unpause",
      "outputs": [],
      "stateMutability": "nonpayable",
      "type": "function"
    },
    {
      "inputs": [
        {
          "internalType": "uint256",
          "name": "_staking",
          "type": "uint256"
        },
        {
          "internalType": "uint256",
          "name": "_liquidity",
          "type": "uint256"
        },
        {
          "internalType": "uint256",
          "name": "_treasury",
          "type": "uint256"
        },
        {
          "internalType": "uint256",
          "name": "_development",
          "type": "uint256"
        }
      ],
      "name": "updateDistribution",
      "outputs": [],
      "stateMutability": "nonpayable",
      "type": "function"
    },
    {
      "inputs": [
        {
          "internalType": "uint256",
          "name": "_transferFee",
          "type": "uint256"
        },
        {
          "internalType": "uint256",
          "name": "_tradingFee",
          "type": "uint256"
        }
      ],
      "name": "updateFees",
      "outputs": [],
      "stateMutability": "nonpayable",
      "type": "function"
    },
    {
      "inputs": [
        {
          "internalType": "address",
          "name": "_staking",
          "type": "address"
        },
        {
          "internalType": "address",
          "name": "_liquidity",
          "type": "address"
        },
        {
          "internalType": "address",
          "name": "_treasury",
          "type": "address"
        },
        {
          "internalType": "address",
          "name": "_development",
          "type": "address"
        }
      ],
      "name": "updatePools",
      "outputs": [],
      "stateMutability": "nonpayable",
      "type": "function"
    }
  ],
  "bytecode": "0x6080604052600a60065560196007556028600c55601e600d556014600e55600a600f553480156200002f57600080fd5b50604051620020d1380380620020d18339810160408190526200005291620004e3565b868660036200006283826200062f565b5060046200007182826200062f565b5050506200008e62000088620002e360201b60201c565b620002e7565b6005805460ff60a01b191690556001600160a01b038416620000f75760405162461bcd60e51b815260206004820152601460248201527f496e76616c6964207374616b696e6720706f6f6c00000000000000000000000060448201526064015b60405180910390fd5b6001600160a01b0383166200014f5760405162461bcd60e51b815260206004820152601660248201527f496e76616c6964206c697175696469747920706f6f6c000000000000000000006044820152606401620000ee565b6001600160a01b038216620001a75760405162461bcd60e51b815260206004820152601560248201527f496e76616c696420747265617375727920706f6f6c00000000000000000000006044820152606401620000ee565b6001600160a01b038116620001ff5760405162461bcd60e51b815260206004820152601860248201527f496e76616c696420646576656c6f706d656e7420706f6f6c00000000000000006044820152606401620000ee565b600880546001600160a01b03199081166001600160a01b0387811691909117909255600980548216868416179055600a80548216858416179055600b80549091169183169190911790556200026f3360126200025d90600a62000810565b62000269908862000828565b62000339565b6001600160a01b039384166000908152601060205260408082208054600160ff19918216811790925595871683528183208054871682179055938616825280822080548616851790559190941684528084208054841683179055338452909220805490911690911790555062000858915050565b3390565b600580546001600160a01b038381166001600160a01b0319831681179093556040519116919082907f8be0079c531659141344cd1fd0a4f28419497f9722a3daafe3b4186f6b6457e090600090a35050565b6001600160a01b038216620003915760405162461bcd60e51b815260206004820152601f60248201527f45524332303a206d696e7420746f20746865207a65726f2061646472657373006044820152606401620000ee565b8060026000828254620003a5919062000842565b90915550506001600160a01b038216600081815260208181526040808320805486019055518481527fddf252ad1be2c89b69c2b068fc378daa952ba7f163c4a11628f55a4df523b3ef910160405180910390a35050565b505050565b634e487b7160e01b600052604160045260246000fd5b600082601f8301126200042957600080fd5b81516001600160401b038082111562000446576200044662000401565b604051601f8301601f19908116603f0116810190828211818310171562000471576200047162000401565b816040528381526020925086838588010111156200048e57600080fd5b600091505b83821015620004b2578582018301518183018401529082019062000493565b600093810190920192909252949350505050565b80516001600160a01b0381168114620004de57600080fd5b919050565b600080600080600080600060e0888a031215620004ff57600080fd5b87516001600160401b03808211156200051757600080fd5b620005258b838c0162000417565b985060208a01519150808211156200053c57600080fd5b506200054b8a828b0162000417565b965050604088015194506200056360608901620004c6565b93506200057360808901620004c6565b92506200058360a08901620004c6565b91506200059360c08901620004c6565b905092959891949750929550565b600181811c90821680620005b657607f821691505b602082108103620005d757634e487b7160e01b600052602260045260246000fd5b50919050565b601f821115620003fc57600081815260208120601f850160051c81016020861015620006065750805b601f850160051c820191505b81811015620006275782815560010162000612565b505050505050565b81516001600160401b038111156200064b576200064b62000401565b62000663816200065c8454620005a1565b84620005dd565b602080601f8311600181146200069b5760008415620006825750858301515b600019600386901b1c1916600185901b17855562000627565b600085815260208120601f198616915b82811015620006cc57888601518255948401946001909101908401620006ab565b5085821015620006eb5787850151600019600388901b60f8161c191681555b5050505050600190811b01905550565b634e487b7160e01b600052601160045260246000fd5b600181815b8085111562000752578160001904821115620007365762000736620006fb565b808516156200074457918102915b93841c939080029062000716565b509250929050565b6000826200076b575060016200080a565b816200077a575060006200080a565b81600181146200079357600281146200079e57620007be565b60019150506200080a565b60ff841115620007b257620007b2620006fb565b50506001821b6200080a565b5060208310610133831016604e8410600b8410161715620007e3575081810a6200080a565b620007ef838362000711565b8060001904821115620008065762000806620006fb565b0290505b92915050565b60006200082160ff8416836200075a565b9392505050565b80820281158282048414176200080a576200080a620006fb565b808201808211156200080a576200080a620006fb565b61186980620008686000396000f3fe608060405234801561001057600080fd5b50600436106102275760003560e01c8063811be77911610130578063bc063e1a116100b8578063dd62ed3e1161007c578063dd62ed3e14610473578063e3663d6c14610486578063f29a3357146104a9578063f2fde38b146104b2578063f729f749146104c557600080fd5b8063bc063e1a1461043c578063c3c2757814610445578063d17812b81461044e578063d73792a914610461578063d7e225b01461046a57600080fd5b806395d89b41116100ff57806395d89b41146103f2578063a1546687146103fa578063a457c2d71461040d578063a9059cbb14610420578063acb2ad6f1461043357600080fd5b8063811be779146103b35780638456cb59146103c65780638cda6649146103ce5780638da5cb5b146103e157600080fd5b806342966c68116101b3578063665a11ca11610182578063665a11ca146103495780636db794371461035c57806370a082311461036f578063715018a614610398578063751fd179146103a057600080fd5b806342966c681461030857806348df58291461031b57806356f433521461032e5780635c975abb1461033757600080fd5b806318160ddd116101fa57806318160ddd146102b757806323b872dd146102c9578063313ce567146102dc57806339509351146102eb5780633f4ba83a146102fe57600080fd5b80630184a8c31461022c57806306fdde0314610264578063095ea7b3146102795780630c56ae3b1461028c575b600080fd5b61024f61023a36600461157e565b60106020526000908152604090205460ff1681565b60405190151581526020015b60405180910390f35b61026c6104ce565b60405161025b91906115a0565b61024f6102873660046115ee565b610560565b60085461029f906001600160a01b031681565b6040516001600160a01b03909116815260200161025b565b6002545b60405190815260200161025b565b61024f6102d7366004611618565b61057a565b6040516012815260200161025b565b61024f6102f93660046115ee565b61059e565b6103066105c0565b005b610306610316366004611654565b6105d2565b600a5461029f906001600160a01b031681565b6102bb60075481565b600554600160a01b900460ff1661024f565b60095461029f906001600160a01b031681565b61030661036a36600461166d565b6105df565b6102bb61037d36600461157e565b6001600160a01b031660009081526020819052604090205490565b6103066106c6565b6103066103ae36600461168f565b6106d8565b600b5461029f906001600160a01b031681565b610306610740565b6103066103dc36600461168f565b610750565b6005546001600160a01b031661029f565b61026c6107b0565b6103066104083660046116cb565b6107bf565b61024f61041b3660046115ee565b61083c565b61024f61042e3660046115ee565b6108b7565b6102bb60065481565b6102bb6101f481565b6102bb600f5481565b61030661045c3660046116fd565b6108c5565b6102bb61271081565b6102bb600e5481565b6102bb610481366004611751565b610aa8565b61024f61049436600461157e565b60116020526000908152604090205460ff1681565b6102bb600c5481565b6103066104c036600461157e565b610ad3565b6102bb600d5481565b6060600380546104dd90611784565b80601f016020809104026020016040519081016040528092919081815260200182805461050990611784565b80156105565780601f1061052b57610100808354040283529160200191610556565b820191906000526020600020905b81548152906001019060200180831161053957829003601f168201915b5050505050905090565b60003361056e818585610b49565b60019150505b92915050565b600033610588858285610c6e565b610593858585610ce8565b506001949350505050565b60003361056e8185856105b18383610aa8565b6105bb91906117d4565b610b49565b6105c8610f6e565b6105d0610fc8565b565b6105dc338261101d565b50565b6105e7610f6e565b6101f48211156106365760405162461bcd60e51b81526020600482015260156024820152740a8e4c2dce6cccae440cccaca40e8dede40d0d2ced605b1b60448201526064015b60405180910390fd5b6101f481111561067f5760405162461bcd60e51b81526020600482015260146024820152730a8e4c2c8d2dcce40cccaca40e8dede40d0d2ced60631b604482015260640161062d565b6006829055600781905560408051838152602081018390527f5c6323bf1c2d7aaea2c091a4751c1c87af7f2864650c336507a77d0557af37a1910160405180910390a15050565b6106ce610f6e565b6105d06000611147565b6106e0610f6e565b6001600160a01b038216600081815260106020908152604091829020805460ff191685151590811790915591519182527f6c3adfee332544f29232690459f4fe23a1c9573efbaac65c9fc033355fb413f091015b60405180910390a25050565b610748610f6e565b6105d0611199565b610758610f6e565b6001600160a01b038216600081815260116020908152604091829020805460ff191685151590811790915591519182527fed8a709bb0366a804b0d8d7a204a70513ae101a65e1cafb728766c2ff31f2ae69101610734565b6060600480546104dd90611784565b6107c7610f6e565b80826107d385876117d4565b6107dd91906117d4565b6107e791906117d4565b6064146108285760405162461bcd60e51b815260206004820152600f60248201526e4d75737420746f74616c203130302560881b604482015260640161062d565b600c93909355600d91909155600e55600f55565b6000338161084a8286610aa8565b9050838110156108aa5760405162461bcd60e51b815260206004820152602560248201527f45524332303a2064656372656173656420616c6c6f77616e63652062656c6f77604482015264207a65726f60d81b606482015260840161062d565b6105938286868403610b49565b60003361056e818585610ce8565b6108cd610f6e565b6001600160a01b03841661091a5760405162461bcd60e51b8152602060048201526014602482015273125b9d985b1a59081cdd185ada5b99c81c1bdbdb60621b604482015260640161062d565b6001600160a01b0383166109695760405162461bcd60e51b8152602060048201526016602482015275125b9d985b1a59081b1a5c5d5a591a5d1e481c1bdbdb60521b604482015260640161062d565b6001600160a01b0382166109b75760405162461bcd60e51b8152602060048201526015602482015274125b9d985b1a59081d1c99585cdd5c9e481c1bdbdb605a1b604482015260640161062d565b6001600160a01b038116610a0d5760405162461bcd60e51b815260206004820152601860248201527f496e76616c696420646576656c6f706d656e7420706f6f6c0000000000000000604482015260640161062d565b600880546001600160a01b038681166001600160a01b03199283168117909355600980548783169084168117909155600a80548784169085168117909155600b805493871693909416831790935560408051948552602085019190915283019190915260608201527fb86edabc4de9262826561af4d772edb8235cb246857cd06c59d823a3537694879060800160405180910390a150505050565b6001600160a01b03918216600090815260016020908152604080832093909416825291909152205490565b610adb610f6e565b6001600160a01b038116610b405760405162461bcd60e51b815260206004820152602660248201527f4f776e61626c653a206e6577206f776e657220697320746865207a65726f206160448201526564647265737360d01b606482015260840161062d565b6105dc81611147565b6001600160a01b038316610bab5760405162461bcd60e51b8152602060048201526024808201527f45524332303a20617070726f76652066726f6d20746865207a65726f206164646044820152637265737360e01b606482015260840161062d565b6001600160a01b038216610c0c5760405162461bcd60e51b815260206004820152602260248201527f45524332303a20617070726f766520746f20746865207a65726f206164647265604482015261737360f01b606482015260840161062d565b6001600160a01b0383811660008181526001602090815260408083209487168084529482529182902085905590518481527f8c5be1e5ebec7d5bd14f71427d1e84f3dd0314c0f7b2291e5b200ac8c7c3b92591015b60405180910390a3505050565b6000610c7a8484610aa8565b90506000198114610ce25781811015610cd55760405162461bcd60e51b815260206004820152601d60248201527f45524332303a20696e73756666696369656e7420616c6c6f77616e6365000000604482015260640161062d565b610ce28484848403610b49565b50505050565b610cf06111dc565b6001600160a01b038316610d465760405162461bcd60e51b815260206004820152601a60248201527f5472616e736665722066726f6d207a65726f2061646472657373000000000000604482015260640161062d565b6001600160a01b038216610d9c5760405162461bcd60e51b815260206004820152601860248201527f5472616e7366657220746f207a65726f20616464726573730000000000000000604482015260640161062d565b60008111610dfe5760405162461bcd60e51b815260206004820152602960248201527f5472616e7366657220616d6f756e74206d7573742062652067726561746572206044820152687468616e207a65726f60b81b606482015260840161062d565b6001600160a01b03831660009081526010602052604081205460ff16158015610e4057506001600160a01b03831660009081526010602052604090205460ff16155b90508015610f63576001600160a01b03841660009081526011602052604081205460ff1680610e8757506001600160a01b03841660009081526011602052604090205460ff165b15610eae5761271060075484610e9d91906117e7565b610ea791906117fe565b9050610ecc565b61271060065484610ebf91906117e7565b610ec991906117fe565b90505b8015610f52576000610ede8285611820565b9050610eeb863084611229565b610ef4826113cd565b610eff868683611229565b846001600160a01b0316866001600160a01b03167ff228de527fc1b9843baac03b9a04565473a263375950e63435d4138464386f4684604051610f4491815260200190565b60405180910390a350610f5d565b610f5d858585611229565b50610ce2565b610ce2848484611229565b6005546001600160a01b031633146105d05760405162461bcd60e51b815260206004820181905260248201527f4f776e61626c653a2063616c6c6572206973206e6f7420746865206f776e6572604482015260640161062d565b610fd0611512565b6005805460ff60a01b191690557f5db9ee0a495bf2e6ff9c91a7834c1ba4fdd244a5e8aa4e537bd38aeae4b073aa335b6040516001600160a01b03909116815260200160405180910390a1565b6001600160a01b03821661107d5760405162461bcd60e51b815260206004820152602160248201527f45524332303a206275726e2066726f6d20746865207a65726f206164647265736044820152607360f81b606482015260840161062d565b6001600160a01b038216600090815260208190526040902054818110156110f15760405162461bcd60e51b815260206004820152602260248201527f45524332303a206275726e20616d6f756e7420657863656564732062616c616e604482015261636560f01b606482015260840161062d565b6001600160a01b0383166000818152602081815260408083208686039055600280548790039055518581529192917fddf252ad1be2c89b69c2b068fc378daa952ba7f163c4a11628f55a4df523b3ef9101610c61565b600580546001600160a01b038381166001600160a01b0319831681179093556040519116919082907f8be0079c531659141344cd1fd0a4f28419497f9722a3daafe3b4186f6b6457e090600090a35050565b6111a16111dc565b6005805460ff60a01b1916600160a01b1790557f62e78cea01bee320cd4e420270b5ea74000d11b0c9f74754ebdbfc544b05a2586110003390565b600554600160a01b900460ff16156105d05760405162461bcd60e51b815260206004820152601060248201526f14185d5cd8589b194e881c185d5cd95960821b604482015260640161062d565b6001600160a01b03831661128d5760405162461bcd60e51b815260206004820152602560248201527f45524332303a207472616e736665722066726f6d20746865207a65726f206164604482015264647265737360d81b606482015260840161062d565b6001600160a01b0382166112ef5760405162461bcd60e51b815260206004820152602360248201527f45524332303a207472616e7366657220746f20746865207a65726f206164647260448201526265737360e81b606482015260840161062d565b6001600160a01b038316600090815260208190526040902054818110156113675760405162461bcd60e51b815260206004820152602660248201527f45524332303a207472616e7366657220616d6f756e7420657863656564732062604482015265616c616e636560d01b606482015260840161062d565b6001600160a01b03848116600081815260208181526040808320878703905593871680835291849020805487019055925185815290927fddf252ad1be2c89b69c2b068fc378daa952ba7f163c4a11628f55a4df523b3ef910160405180910390a3610ce2565b60006064600c54836113df91906117e7565b6113e991906117fe565b905060006064600d54846113fd91906117e7565b61140791906117fe565b905060006064600e548561141b91906117e7565b61142591906117fe565b9050600081836114358688611820565b61143f9190611820565b6114499190611820565b90508315611469576008546114699030906001600160a01b031686611229565b8215611487576009546114879030906001600160a01b031685611229565b81156114a557600a546114a59030906001600160a01b031684611229565b80156114c357600b546114c39030906001600160a01b031683611229565b6040805185815260208101859052908101839052606081018290527f5b3735d487e9342fbcf11df79c2146f60ffabadb4d2e31ced107fe4346cd21ef9060800160405180910390a15050505050565b600554600160a01b900460ff166105d05760405162461bcd60e51b815260206004820152601460248201527314185d5cd8589b194e881b9bdd081c185d5cd95960621b604482015260640161062d565b80356001600160a01b038116811461157957600080fd5b919050565b60006020828403121561159057600080fd5b61159982611562565b9392505050565b600060208083528351808285015260005b818110156115cd578581018301518582016040015282016115b1565b506000604082860101526040601f19601f8301168501019250505092915050565b6000806040838503121561160157600080fd5b61160a83611562565b946020939093013593505050565b60008060006060848603121561162d57600080fd5b61163684611562565b925061164460208501611562565b9150604084013590509250925092565b60006020828403121561166657600080fd5b5035919050565b6000806040838503121561168057600080fd5b50508035926020909101359150565b600080604083850312156116a257600080fd5b6116ab83611562565b9150602083013580151581146116c057600080fd5b809150509250929050565b600080600080608085870312156116e157600080fd5b5050823594602084013594506040840135936060013592509050565b6000806000806080858703121561171357600080fd5b61171c85611562565b935061172a60208601611562565b925061173860408601611562565b915061174660608601611562565b905092959194509250565b6000806040838503121561176457600080fd5b61176d83611562565b915061177b60208401611562565b90509250929050565b600181811c9082168061179857607f821691505b6020821081036117b857634e487b7160e01b600052602260045260246000fd5b50919050565b634e487b7160e01b600052601160045260246000fd5b80820180821115610574576105746117be565b8082028115828204841417610574576105746117be565b60008261181b57634e487b7160e01b600052601260045260246000fd5b500490565b81810381811115610574576105746117be56fea2646970667358221220ac3ff58c74bca86f434e4cce59482d78c414094dba689067cbe3c9fea160169064736f6c63430008130033",
  "linkReferences": {},
  "deployedLinkReferences": {}
}