{"contracts/TTXToken.sol":{"TTXToken":{"abi":[{"inputs":[{"internalType":"string","name":"name","type":"string"},{"internalType":"string","name":"symbol","type":"string"},{"internalType":"uint256","name":"initialSupply","type":"uint256"},{"internalType":"address","name":"_stakingPool","type":"address"},{"internalType":"address","name":"_liquidityPool","type":"address"},{"internalType":"address","name":"_treasuryPool","type":"address"},{"internalType":"address","name":"_developmentPool","type":"address"}],"stateMutability":"nonpayable","type":"constructor"},{"anonymous":false,"inputs":[{"indexed":true,"internalType":"address","name":"owner","type":"address"},{"indexed":true,"internalType":"address","name":"spender","type":"address"},{"indexed":false,"internalType":"uint256","name":"value","type":"uint256"}],"name":"Approval","type":"event"},{"anonymous":false,"inputs":[{"indexed":true,"internalType":"address","name":"account","type":"address"},{"indexed":false,"internalType":"bool","name":"isExempt","type":"bool"}],"name":"ExemptionUpdated","type":"event"},{"anonymous":false,"inputs":[{"indexed":true,"internalType":"address","name":"from","type":"address"},{"indexed":true,"internalType":"address","name":"to","type":"address"},{"indexed":false,"internalType":"uint256","name":"amount","type":"uint256"}],"name":"FeeCollected","type":"event"},{"anonymous":false,"inputs":[{"indexed":false,"internalType":"uint256","name":"staking","type":"uint256"},{"indexed":false,"internalType":"uint256","name":"liquidity","type":"uint256"},{"indexed":false,"internalType":"uint256","name":"treasury","type":"uint256"},{"indexed":false,"internalType":"uint256","name":"development","type":"uint256"}],"name":"FeeDistributed","type":"event"},{"anonymous":false,"inputs":[{"indexed":false,"internalType":"uint256","name":"transferFee","type":"uint256"},{"indexed":false,"internalType":"uint256","name":"tradingFee","type":"uint256"}],"name":"FeesUpdated","type":"event"},{"anonymous":false,"inputs":[{"indexed":true,"internalType":"address","name":"previousOwner","type":"address"},{"indexed":true,"internalType":"address","name":"newOwner","type":"address"}],"name":"OwnershipTransferred","type":"event"},{"anonymous":false,"inputs":[{"indexed":false,"internalType":"address","name":"account","type":"address"}],"name":"Paused","type":"event"},{"anonymous":false,"inputs":[{"indexed":false,"internalType":"address","name":"staking","type":"address"},{"indexed":false,"internalType":"address","name":"liquidity","type":"address"},{"indexed":false,"internalType":"address","name":"treasury","type":"address"},{"indexed":false,"internalType":"address","name":"development","type":"address"}],"name":"PoolsUpdated","type":"event"},{"anonymous":false,"inputs":[{"indexed":true,"internalType":"address","name":"pair","type":"address"},{"indexed":false,"internalType":"bool","name":"isTradingPair","type":"bool"}],"name":"TradingPairUpdated","type":"event"},{"anonymous":false,"inputs":[{"indexed":true,"internalType":"address","name":"from","type":"address"},{"indexed":true,"internalType":"address","name":"to","type":"address"},{"indexed":false,"internalType":"uint256","name":"value","type":"uint256"}],"name":"Transfer","type":"event"},{"anonymous":false,"inputs":[{"indexed":false,"internalType":"address","name":"account","type":"address"}],"name":"Unpaused","type":"event"},{"inputs":[],"name":"FEE_DENOMINATOR","outputs":[{"internalType":"uint256","name":"","type":"uint256"}],"stateMutability":"view","type":"function"},{"inputs":[],"name":"MAX_FEE","outputs":[{"internalType":"uint256","name":"","type":"uint256"}],"stateMutability":"view","type":"function"},{"inputs":[{"internalType":"address","name":"owner","type":"address"},{"internalType":"address","name":"spender","type":"address"}],"name":"allowance","outputs":[{"internalType":"uint256","name":"","type":"uint256"}],"stateMutability":"view","type":"function"},{"inputs":[{"internalType":"address","name":"spender","type":"address"},{"internalType":"uint256","name":"amount","type":"uint256"}],"name":"approve","outputs":[{"internalType":"bool","name":"","type":"bool"}],"stateMutability":"nonpayable","type":"function"},{"inputs":[{"internalType":"address","name":"account","type":"address"}],"name":"balanceOf","outputs":[{"internalType":"uint256","name":"","type":"uint256"}],"stateMutability":"view","type":"function"},{"inputs":[{"internalType":"uint256","name":"amount","type":"uint256"}],"name":"burn","outputs":[],"stateMutability":"nonpayable","type":"function"},{"inputs":[],"name":"decimals","outputs":[{"internalType":"uint8","name":"","type":"uint8"}],"stateMutability":"view","type":"function"},{"inputs":[{"internalType":"address","name":"spender","type":"address"},{"internalType":"uint256","name":"subtractedValue","type":"uint256"}],"name":"decreaseAllowance","outputs":[{"internalType":"bool","name":"","type":"bool"}],"stateMutability":"nonpayable","type":"function"},{"inputs":[],"name":"developmentPool","outputs":[{"internalType":"address","name":"","type":"address"}],"stateMutability":"view","type":"function"},{"inputs":[],"name":"developmentPoolPercent","outputs":[{"internalType":"uint256","name":"","type":"uint256"}],"stateMutability":"view","type":"function"},{"inputs":[{"internalType":"address","name":"spender","type":"address"},{"internalType":"uint256","name":"addedValue","type":"uint256"}],"name":"increaseAllowance","outputs":[{"internalType":"bool","name":"","type":"bool"}],"stateMutability":"nonpayable","type":"function"},{"inputs":[{"internalType":"address","name":"","type":"address"}],"name":"isExemptFromFee","outputs":[{"internalType":"bool","name":"","type":"bool"}],"stateMutability":"view","type":"function"},{"inputs":[{"internalType":"address","name":"","type":"address"}],"name":"isTradingPair","outputs":[{"internalType":"bool","name":"","type":"bool"}],"stateMutability":"view","type":"function"},{"inputs":[],"name":"liquidityPool","outputs":[{"internalType":"address","name":"","type":"address"}],"stateMutability":"view","type":"function"},{"inputs":[],"name":"liquidityPoolPercent","outputs":[{"internalType":"uint256","name":"","type":"uint256"}],"stateMutability":"view","type":"function"},{"inputs":[],"name":"name","outputs":[{"internalType":"string","name":"","type":"string"}],"stateMutability":"view","type":"function"},{"inputs":[],"name":"owner","outputs":[{"internalType":"address","name":"","type":"address"}],"stateMutability":"view","type":"function"},{"inputs":[],"name":"pause","outputs":[],"stateMutability":"nonpayable","type":"function"},{"inputs":[],"name":"paused","outputs":[{"internalType":"bool","name":"","type":"bool"}],"stateMutability":"view","type":"function"},{"inputs":[],"name":"renounceOwnership","outputs":[],"stateMutability":"nonpayable","type":"function"},{"inputs":[{"internalType":"address","name":"account","type":"address"},{"internalType":"bool","name":"exempt","type":"bool"}],"name":"setFeeExemption","outputs":[],"stateMutability":"nonpayable","type":"function"},{"inputs":[{"internalType":"address","name":"pair","type":"address"},{"internalType":"bool","name":"isTradingPairAddress","type":"bool"}],"name":"setTradingPair","outputs":[],"stateMutability":"nonpayable","type":"function"},{"inputs":[],"name":"stakingPool","outputs":[{"internalType":"address","name":"","type":"address"}],"stateMutability":"view","type":"function"},{"inputs":[],"name":"stakingPoolPercent","outputs":[{"internalType":"uint256","name":"","type":"uint256"}],"stateMutability":"view","type":"function"},{"inputs":[],"name":"symbol","outputs":[{"internalType":"string","name":"","type":"string"}],"stateMutability":"view","type":"function"},{"inputs":[],"name":"totalSupply","outputs":[{"internalType":"uint256","name":"","type":"uint256"}],"stateMutability":"view","type":"function"},{"inputs":[],"name":"tradingFee","outputs":[{"internalType":"uint256","name":"","type":"uint256"}],"stateMutability":"view","type":"function"},{"inputs":[{"internalType":"address","name":"to","type":"address"},{"internalType":"uint256","name":"amount","type":"uint256"}],"name":"transfer","outputs":[{"internalType":"bool","name":"","type":"bool"}],"stateMutability":"nonpayable","type":"function"},{"inputs":[],"name":"transferFee","outputs":[{"internalType":"uint256","name":"","type":"uint256"}],"stateMutability":"view","type":"function"},{"inputs":[{"internalType":"address","name":"from","type":"address"},{"internalType":"address","name":"to","type":"address"},{"internalType":"uint256","name":"amount","type":"uint256"}],"name":"transferFrom","outputs":[{"internalType":"bool","name":"","type":"bool"}],"stateMutability":"nonpayable","type":"function"},{"inputs":[{"internalType":"address","name":"newOwner","type":"address"}],"name":"transferOwnership","outputs":[],"stateMutability":"nonpayable","type":"function"},{"inputs":[],"name":"treasuryPool","outputs":[{"internalType":"address","name":"","type":"address"}],"stateMutability":"view","type":"function"},{"inputs":[],"name":"treasuryPoolPercent","outputs":[{"internalType":"uint256","name":"","type":"uint256"}],"stateMutability":"view","type":"function"},{"inputs":[],"name":"unpause","outputs":[],"stateMutability":"nonpayable","type":"function"},{"inputs":[{"internalType":"uint256","name":"_staking","type":"uint256"},{"internalType":"uint256","name":"_liquidity","type":"uint256"},{"internalType":"uint256","name":"_treasury","type":"uint256"},{"internalType":"uint256","name":"_development","type":"uint256"}],"name":"updateDistribution","outputs":[],"stateMutability":"nonpayable","type":"function"},{"inputs":[{"internalType":"uint256","name":"_transferFee","type":"uint256"},{"internalType":"uint256","name":"_tradingFee","type":"uint256"}],"name":"updateFees","outputs":[],"stateMutability":"nonpayable","type":"function"},{"inputs":[{"internalType":"address","name":"_staking","type":"address"},{"internalType":"address","name":"_liquidity","type":"address"},{"internalType":"address","name":"_treasury","type":"address"},{"internalType":"address","name":"_development","type":"address"}],"name":"updatePools","outputs":[],"stateMutability":"nonpayable","type":"function"}],"evm":{"bytecode":{"linkReferences":{},"object":"6080604052600a60065560196007556028600c55601e600d556014600e55600a600f553480156200002f57600080fd5b50604051620020d1380380620020d18339810160408190526200005291620004e3565b868660036200006283826200062f565b5060046200007182826200062f565b5050506200008e62000088620002e360201b60201c565b620002e7565b6005805460ff60a01b191690556001600160a01b038416620000f75760405162461bcd60e51b815260206004820152601460248201527f496e76616c6964207374616b696e6720706f6f6c00000000000000000000000060448201526064015b60405180910390fd5b6001600160a01b0383166200014f5760405162461bcd60e51b815260206004820152601660248201527f496e76616c6964206c697175696469747920706f6f6c000000000000000000006044820152606401620000ee565b6001600160a01b038216620001a75760405162461bcd60e51b815260206004820152601560248201527f496e76616c696420747265617375727920706f6f6c00000000000000000000006044820152606401620000ee565b6001600160a01b038116620001ff5760405162461bcd60e51b815260206004820152601860248201527f496e76616c696420646576656c6f706d656e7420706f6f6c00000000000000006044820152606401620000ee565b600880546001600160a01b03199081166001600160a01b0387811691909117909255600980548216868416179055600a80548216858416179055600b80549091169183169190911790556200026f3360126200025d90600a62000810565b62000269908862000828565b62000339565b6001600160a01b039384166000908152601060205260408082208054600160ff19918216811790925595871683528183208054871682179055938616825280822080548616851790559190941684528084208054841683179055338452909220805490911690911790555062000858915050565b3390565b600580546001600160a01b038381166001600160a01b0319831681179093556040519116919082907f8be0079c531659141344cd1fd0a4f28419497f9722a3daafe3b4186f6b6457e090600090a35050565b6001600160a01b038216620003915760405162461bcd60e51b815260206004820152601f60248201527f45524332303a206d696e7420746f20746865207a65726f2061646472657373006044820152606401620000ee565b8060026000828254620003a5919062000842565b90915550506001600160a01b038216600081815260208181526040808320805486019055518481527fddf252ad1be2c89b69c2b068fc378daa952ba7f163c4a11628f55a4df523b3ef910160405180910390a35050565b505050565b634e487b7160e01b600052604160045260246000fd5b600082601f8301126200042957600080fd5b81516001600160401b038082111562000446576200044662000401565b604051601f8301601f19908116603f0116810190828211818310171562000471576200047162000401565b816040528381526020925086838588010111156200048e57600080fd5b600091505b83821015620004b2578582018301518183018401529082019062000493565b600093810190920192909252949350505050565b80516001600160a01b0381168114620004de57600080fd5b919050565b600080600080600080600060e0888a031215620004ff57600080fd5b87516001600160401b03808211156200051757600080fd5b620005258b838c0162000417565b985060208a01519150808211156200053c57600080fd5b506200054b8a828b0162000417565b965050604088015194506200056360608901620004c6565b93506200057360808901620004c6565b92506200058360a08901620004c6565b91506200059360c08901620004c6565b905092959891949750929550565b600181811c90821680620005b657607f821691505b602082108103620005d757634e487b7160e01b600052602260045260246000fd5b50919050565b601f821115620003fc57600081815260208120601f850160051c81016020861015620006065750805b601f850160051c820191505b81811015620006275782815560010162000612565b505050505050565b81516001600160401b038111156200064b576200064b62000401565b62000663816200065c8454620005a1565b84620005dd565b602080601f8311600181146200069b5760008415620006825750858301515b600019600386901b1c1916600185901b17855562000627565b600085815260208120601f198616915b82811015620006cc57888601518255948401946001909101908401620006ab565b5085821015620006eb5787850151600019600388901b60f8161c191681555b5050505050600190811b01905550565b634e487b7160e01b600052601160045260246000fd5b600181815b8085111562000752578160001904821115620007365762000736620006fb565b808516156200074457918102915b93841c939080029062000716565b509250929050565b6000826200076b575060016200080a565b816200077a575060006200080a565b81600181146200079357600281146200079e57620007be565b60019150506200080a565b60ff841115620007b257620007b2620006fb565b50506001821b6200080a565b5060208310610133831016604e8410600b8410161715620007e3575081810a6200080a565b620007ef838362000711565b8060001904821115620008065762000806620006fb565b0290505b92915050565b60006200082160ff8416836200075a565b9392505050565b80820281158282048414176200080a576200080a620006fb565b808201808211156200080a576200080a620006fb565b61186980620008686000396000f3fe608060405234801561001057600080fd5b50600436106102275760003560e01c8063811be77911610130578063bc063e1a116100b8578063dd62ed3e1161007c578063dd62ed3e14610473578063e3663d6c14610486578063f29a3357146104a9578063f2fde38b146104b2578063f729f749146104c557600080fd5b8063bc063e1a1461043c578063c3c2757814610445578063d17812b81461044e578063d73792a914610461578063d7e225b01461046a57600080fd5b806395d89b41116100ff57806395d89b41146103f2578063a1546687146103fa578063a457c2d71461040d578063a9059cbb14610420578063acb2ad6f1461043357600080fd5b8063811be779146103b35780638456cb59146103c65780638cda6649146103ce5780638da5cb5b146103e157600080fd5b806342966c68116101b3578063665a11ca11610182578063665a11ca146103495780636db794371461035c57806370a082311461036f578063715018a614610398578063751fd179146103a057600080fd5b806342966c681461030857806348df58291461031b57806356f433521461032e5780635c975abb1461033757600080fd5b806318160ddd116101fa57806318160ddd146102b757806323b872dd146102c9578063313ce567146102dc57806339509351146102eb5780633f4ba83a146102fe57600080fd5b80630184a8c31461022c57806306fdde0314610264578063095ea7b3146102795780630c56ae3b1461028c575b600080fd5b61024f61023a36600461157e565b60106020526000908152604090205460ff1681565b60405190151581526020015b60405180910390f35b61026c6104ce565b60405161025b91906115a0565b61024f6102873660046115ee565b610560565b60085461029f906001600160a01b031681565b6040516001600160a01b03909116815260200161025b565b6002545b60405190815260200161025b565b61024f6102d7366004611618565b61057a565b6040516012815260200161025b565b61024f6102f93660046115ee565b61059e565b6103066105c0565b005b610306610316366004611654565b6105d2565b600a5461029f906001600160a01b031681565b6102bb60075481565b600554600160a01b900460ff1661024f565b60095461029f906001600160a01b031681565b61030661036a36600461166d565b6105df565b6102bb61037d36600461157e565b6001600160a01b031660009081526020819052604090205490565b6103066106c6565b6103066103ae36600461168f565b6106d8565b600b5461029f906001600160a01b031681565b610306610740565b6103066103dc36600461168f565b610750565b6005546001600160a01b031661029f565b61026c6107b0565b6103066104083660046116cb565b6107bf565b61024f61041b3660046115ee565b61083c565b61024f61042e3660046115ee565b6108b7565b6102bb60065481565b6102bb6101f481565b6102bb600f5481565b61030661045c3660046116fd565b6108c5565b6102bb61271081565b6102bb600e5481565b6102bb610481366004611751565b610aa8565b61024f61049436600461157e565b60116020526000908152604090205460ff1681565b6102bb600c5481565b6103066104c036600461157e565b610ad3565b6102bb600d5481565b6060600380546104dd90611784565b80601f016020809104026020016040519081016040528092919081815260200182805461050990611784565b80156105565780601f1061052b57610100808354040283529160200191610556565b820191906000526020600020905b81548152906001019060200180831161053957829003601f168201915b5050505050905090565b60003361056e818585610b49565b60019150505b92915050565b600033610588858285610c6e565b610593858585610ce8565b506001949350505050565b60003361056e8185856105b18383610aa8565b6105bb91906117d4565b610b49565b6105c8610f6e565b6105d0610fc8565b565b6105dc338261101d565b50565b6105e7610f6e565b6101f48211156106365760405162461bcd60e51b81526020600482015260156024820152740a8e4c2dce6cccae440cccaca40e8dede40d0d2ced605b1b60448201526064015b60405180910390fd5b6101f481111561067f5760405162461bcd60e51b81526020600482015260146024820152730a8e4c2c8d2dcce40cccaca40e8dede40d0d2ced60631b604482015260640161062d565b6006829055600781905560408051838152602081018390527f5c6323bf1c2d7aaea2c091a4751c1c87af7f2864650c336507a77d0557af37a1910160405180910390a15050565b6106ce610f6e565b6105d06000611147565b6106e0610f6e565b6001600160a01b038216600081815260106020908152604091829020805460ff191685151590811790915591519182527f6c3adfee332544f29232690459f4fe23a1c9573efbaac65c9fc033355fb413f091015b60405180910390a25050565b610748610f6e565b6105d0611199565b610758610f6e565b6001600160a01b038216600081815260116020908152604091829020805460ff191685151590811790915591519182527fed8a709bb0366a804b0d8d7a204a70513ae101a65e1cafb728766c2ff31f2ae69101610734565b6060600480546104dd90611784565b6107c7610f6e565b80826107d385876117d4565b6107dd91906117d4565b6107e791906117d4565b6064146108285760405162461bcd60e51b815260206004820152600f60248201526e4d75737420746f74616c203130302560881b604482015260640161062d565b600c93909355600d91909155600e55600f55565b6000338161084a8286610aa8565b9050838110156108aa5760405162461bcd60e51b815260206004820152602560248201527f45524332303a2064656372656173656420616c6c6f77616e63652062656c6f77604482015264207a65726f60d81b606482015260840161062d565b6105938286868403610b49565b60003361056e818585610ce8565b6108cd610f6e565b6001600160a01b03841661091a5760405162461bcd60e51b8152602060048201526014602482015273125b9d985b1a59081cdd185ada5b99c81c1bdbdb60621b604482015260640161062d565b6001600160a01b0383166109695760405162461bcd60e51b8152602060048201526016602482015275125b9d985b1a59081b1a5c5d5a591a5d1e481c1bdbdb60521b604482015260640161062d565b6001600160a01b0382166109b75760405162461bcd60e51b8152602060048201526015602482015274125b9d985b1a59081d1c99585cdd5c9e481c1bdbdb605a1b604482015260640161062d565b6001600160a01b038116610a0d5760405162461bcd60e51b815260206004820152601860248201527f496e76616c696420646576656c6f706d656e7420706f6f6c0000000000000000604482015260640161062d565b600880546001600160a01b038681166001600160a01b03199283168117909355600980548783169084168117909155600a80548784169085168117909155600b805493871693909416831790935560408051948552602085019190915283019190915260608201527fb86edabc4de9262826561af4d772edb8235cb246857cd06c59d823a3537694879060800160405180910390a150505050565b6001600160a01b03918216600090815260016020908152604080832093909416825291909152205490565b610adb610f6e565b6001600160a01b038116610b405760405162461bcd60e51b815260206004820152602660248201527f4f776e61626c653a206e6577206f776e657220697320746865207a65726f206160448201526564647265737360d01b606482015260840161062d565b6105dc81611147565b6001600160a01b038316610bab5760405162461bcd60e51b8152602060048201526024808201527f45524332303a20617070726f76652066726f6d20746865207a65726f206164646044820152637265737360e01b606482015260840161062d565b6001600160a01b038216610c0c5760405162461bcd60e51b815260206004820152602260248201527f45524332303a20617070726f766520746f20746865207a65726f206164647265604482015261737360f01b606482015260840161062d565b6001600160a01b0383811660008181526001602090815260408083209487168084529482529182902085905590518481527f8c5be1e5ebec7d5bd14f71427d1e84f3dd0314c0f7b2291e5b200ac8c7c3b92591015b60405180910390a3505050565b6000610c7a8484610aa8565b90506000198114610ce25781811015610cd55760405162461bcd60e51b815260206004820152601d60248201527f45524332303a20696e73756666696369656e7420616c6c6f77616e6365000000604482015260640161062d565b610ce28484848403610b49565b50505050565b610cf06111dc565b6001600160a01b038316610d465760405162461bcd60e51b815260206004820152601a60248201527f5472616e736665722066726f6d207a65726f2061646472657373000000000000604482015260640161062d565b6001600160a01b038216610d9c5760405162461bcd60e51b815260206004820152601860248201527f5472616e7366657220746f207a65726f20616464726573730000000000000000604482015260640161062d565b60008111610dfe5760405162461bcd60e51b815260206004820152602960248201527f5472616e7366657220616d6f756e74206d7573742062652067726561746572206044820152687468616e207a65726f60b81b606482015260840161062d565b6001600160a01b03831660009081526010602052604081205460ff16158015610e4057506001600160a01b03831660009081526010602052604090205460ff16155b90508015610f63576001600160a01b03841660009081526011602052604081205460ff1680610e8757506001600160a01b03841660009081526011602052604090205460ff165b15610eae5761271060075484610e9d91906117e7565b610ea791906117fe565b9050610ecc565b61271060065484610ebf91906117e7565b610ec991906117fe565b90505b8015610f52576000610ede8285611820565b9050610eeb863084611229565b610ef4826113cd565b610eff868683611229565b846001600160a01b0316866001600160a01b03167ff228de527fc1b9843baac03b9a04565473a263375950e63435d4138464386f4684604051610f4491815260200190565b60405180910390a350610f5d565b610f5d858585611229565b50610ce2565b610ce2848484611229565b6005546001600160a01b031633146105d05760405162461bcd60e51b815260206004820181905260248201527f4f776e61626c653a2063616c6c6572206973206e6f7420746865206f776e6572604482015260640161062d565b610fd0611512565b6005805460ff60a01b191690557f5db9ee0a495bf2e6ff9c91a7834c1ba4fdd244a5e8aa4e537bd38aeae4b073aa335b6040516001600160a01b03909116815260200160405180910390a1565b6001600160a01b03821661107d5760405162461bcd60e51b815260206004820152602160248201527f45524332303a206275726e2066726f6d20746865207a65726f206164647265736044820152607360f81b606482015260840161062d565b6001600160a01b038216600090815260208190526040902054818110156110f15760405162461bcd60e51b815260206004820152602260248201527f45524332303a206275726e20616d6f756e7420657863656564732062616c616e604482015261636560f01b606482015260840161062d565b6001600160a01b0383166000818152602081815260408083208686039055600280548790039055518581529192917fddf252ad1be2c89b69c2b068fc378daa952ba7f163c4a11628f55a4df523b3ef9101610c61565b600580546001600160a01b038381166001600160a01b0319831681179093556040519116919082907f8be0079c531659141344cd1fd0a4f28419497f9722a3daafe3b4186f6b6457e090600090a35050565b6111a16111dc565b6005805460ff60a01b1916600160a01b1790557f62e78cea01bee320cd4e420270b5ea74000d11b0c9f74754ebdbfc544b05a2586110003390565b600554600160a01b900460ff16156105d05760405162461bcd60e51b815260206004820152601060248201526f14185d5cd8589b194e881c185d5cd95960821b604482015260640161062d565b6001600160a01b03831661128d5760405162461bcd60e51b815260206004820152602560248201527f45524332303a207472616e736665722066726f6d20746865207a65726f206164604482015264647265737360d81b606482015260840161062d565b6001600160a01b0382166112ef5760405162461bcd60e51b815260206004820152602360248201527f45524332303a207472616e7366657220746f20746865207a65726f206164647260448201526265737360e81b606482015260840161062d565b6001600160a01b038316600090815260208190526040902054818110156113675760405162461bcd60e51b815260206004820152602660248201527f45524332303a207472616e7366657220616d6f756e7420657863656564732062604482015265616c616e636560d01b606482015260840161062d565b6001600160a01b03848116600081815260208181526040808320878703905593871680835291849020805487019055925185815290927fddf252ad1be2c89b69c2b068fc378daa952ba7f163c4a11628f55a4df523b3ef910160405180910390a3610ce2565b60006064600c54836113df91906117e7565b6113e991906117fe565b905060006064600d54846113fd91906117e7565b61140791906117fe565b905060006064600e548561141b91906117e7565b61142591906117fe565b9050600081836114358688611820565b61143f9190611820565b6114499190611820565b90508315611469576008546114699030906001600160a01b031686611229565b8215611487576009546114879030906001600160a01b031685611229565b81156114a557600a546114a59030906001600160a01b031684611229565b80156114c357600b546114c39030906001600160a01b031683611229565b6040805185815260208101859052908101839052606081018290527f5b3735d487e9342fbcf11df79c2146f60ffabadb4d2e31ced107fe4346cd21ef9060800160405180910390a15050505050565b600554600160a01b900460ff166105d05760405162461bcd60e51b815260206004820152601460248201527314185d5cd8589b194e881b9bdd081c185d5cd95960621b604482015260640161062d565b80356001600160a01b038116811461157957600080fd5b919050565b60006020828403121561159057600080fd5b61159982611562565b9392505050565b600060208083528351808285015260005b818110156115cd578581018301518582016040015282016115b1565b506000604082860101526040601f19601f8301168501019250505092915050565b6000806040838503121561160157600080fd5b61160a83611562565b946020939093013593505050565b60008060006060848603121561162d57600080fd5b61163684611562565b925061164460208501611562565b9150604084013590509250925092565b60006020828403121561166657600080fd5b5035919050565b6000806040838503121561168057600080fd5b50508035926020909101359150565b600080604083850312156116a257600080fd5b6116ab83611562565b9150602083013580151581146116c057600080fd5b809150509250929050565b600080600080608085870312156116e157600080fd5b5050823594602084013594506040840135936060013592509050565b6000806000806080858703121561171357600080fd5b61171c85611562565b935061172a60208601611562565b925061173860408601611562565b915061174660608601611562565b905092959194509250565b6000806040838503121561176457600080fd5b61176d83611562565b915061177b60208401611562565b90509250929050565b600181811c9082168061179857607f821691505b6020821081036117b857634e487b7160e01b600052602260045260246000fd5b50919050565b634e487b7160e01b600052601160045260246000fd5b80820180821115610574576105746117be565b8082028115828204841417610574576105746117be565b60008261181b57634e487b7160e01b600052601260045260246000fd5b500490565b81810381811115610574576105746117be56fea2646970667358221220ac3ff58c74bca86f434e4cce59482d78c414094dba689067cbe3c9fea160169064736f6c63430008130033","opcodes":"PUSH1 0x80 PUSH1 0x40 MSTORE PUSH1 0xA PUSH1 0x6 SSTORE PUSH1 0x19 PUSH1 0x7 SSTORE PUSH1 0x28 PUSH1 0xC SSTORE PUSH1 0x1E PUSH1 0xD SSTORE PUSH1 0x14 PUSH1 0xE SSTORE PUSH1 0xA PUSH1 0xF SSTORE CALLVALUE DUP1 ISZERO PUSH3 0x2F JUMPI PUSH1 0x0 DUP1 REVERT JUMPDEST POP PUSH1 0x40 MLOAD PUSH3 0x20D1 CODESIZE SUB DUP1 PUSH3 0x20D1 DUP4 CODECOPY DUP2 ADD PUSH1 0x40 DUP2 SWAP1 MSTORE PUSH3 0x52 SWAP2 PUSH3 0x4E3 JUMP JUMPDEST DUP7 DUP7 PUSH1 0x3 PUSH3 0x62 DUP4 DUP3 PUSH3 0x62F JUMP JUMPDEST POP PUSH1 0x4 PUSH3 0x71 DUP3 DUP3 PUSH3 0x62F JUMP JUMPDEST POP POP POP PUSH3 0x8E PUSH3 0x88 PUSH3 0x2E3 PUSH1 0x20 SHL PUSH1 0x20 SHR JUMP JUMPDEST PUSH3 0x2E7 JUMP JUMPDEST PUSH1 0x5 DUP1 SLOAD PUSH1 0xFF PUSH1 0xA0 SHL NOT AND SWAP1 SSTORE PUSH1 0x1 PUSH1 0x1 PUSH1 0xA0 SHL SUB DUP5 AND PUSH3 0xF7 JUMPI PUSH1 0x40 MLOAD PUSH3 0x461BCD PUSH1 0xE5 SHL DUP2 MSTORE PUSH1 0x20 PUSH1 0x4 DUP3 ADD MSTORE PUSH1 0x14 PUSH1 0x24 DUP3 ADD MSTORE PUSH32 0x496E76616C6964207374616B696E6720706F6F6C000000000000000000000000 PUSH1 0x44 DUP3 ADD MSTORE PUSH1 0x64 ADD JUMPDEST PUSH1 0x40 MLOAD DUP1 SWAP2 SUB SWAP1 REVERT JUMPDEST PUSH1 0x1 PUSH1 0x1 PUSH1 0xA0 SHL SUB DUP4 AND PUSH3 0x14F JUMPI PUSH1 0x40 MLOAD PUSH3 0x461BCD PUSH1 0xE5 SHL DUP2 MSTORE PUSH1 0x20 PUSH1 0x4 DUP3 ADD MSTORE PUSH1 0x16 PUSH1 0x24 DUP3 ADD MSTORE PUSH32 0x496E76616C6964206C697175696469747920706F6F6C00000000000000000000 PUSH1 0x44 DUP3 ADD MSTORE PUSH1 0x64 ADD PUSH3 0xEE JUMP JUMPDEST PUSH1 0x1 PUSH1 0x1 PUSH1 0xA0 SHL SUB DUP3 AND PUSH3 0x1A7 JUMPI PUSH1 0x40 MLOAD PUSH3 0x461BCD PUSH1 0xE5 SHL DUP2 MSTORE PUSH1 0x20 PUSH1 0x4 DUP3 ADD MSTORE PUSH1 0x15 PUSH1 0x24 DUP3 ADD MSTORE PUSH32 0x496E76616C696420747265617375727920706F6F6C0000000000000000000000 PUSH1 0x44 DUP3 ADD MSTORE PUSH1 0x64 ADD PUSH3 0xEE JUMP JUMPDEST PUSH1 0x1 PUSH1 0x1 PUSH1 0xA0 SHL SUB DUP2 AND PUSH3 0x1FF JUMPI PUSH1 0x40 MLOAD PUSH3 0x461BCD PUSH1 0xE5 SHL DUP2 MSTORE PUSH1 0x20 PUSH1 0x4 DUP3 ADD MSTORE PUSH1 0x18 PUSH1 0x24 DUP3 ADD MSTORE PUSH32 0x496E76616C696420646576656C6F706D656E7420706F6F6C0000000000000000 PUSH1 0x44 DUP3 ADD MSTORE PUSH1 0x64 ADD PUSH3 0xEE JUMP JUMPDEST PUSH1 0x8 DUP1 SLOAD PUSH1 0x1 PUSH1 0x1 PUSH1 0xA0 SHL SUB NOT SWAP1 DUP2 AND PUSH1 0x1 PUSH1 0x1 PUSH1 0xA0 SHL SUB DUP8 DUP2 AND SWAP2 SWAP1 SWAP2 OR SWAP1 SWAP3 SSTORE PUSH1 0x9 DUP1 SLOAD DUP3 AND DUP7 DUP5 AND OR SWAP1 SSTORE PUSH1 0xA DUP1 SLOAD DUP3 AND DUP6 DUP5 AND OR SWAP1 SSTORE PUSH1 0xB DUP1 SLOAD SWAP1 SWAP2 AND SWAP2 DUP4 AND SWAP2 SWAP1 SWAP2 OR SWAP1 SSTORE PUSH3 0x26F CALLER PUSH1 0x12 PUSH3 0x25D SWAP1 PUSH1 0xA PUSH3 0x810 JUMP JUMPDEST PUSH3 0x269 SWAP1 DUP9 PUSH3 0x828 JUMP JUMPDEST PUSH3 0x339 JUMP JUMPDEST PUSH1 0x1 PUSH1 0x1 PUSH1 0xA0 SHL SUB SWAP4 DUP5 AND PUSH1 0x0 SWAP1 DUP2 MSTORE PUSH1 0x10 PUSH1 0x20 MSTORE PUSH1 0x40 DUP1 DUP3 KECCAK256 DUP1 SLOAD PUSH1 0x1 PUSH1 0xFF NOT SWAP2 DUP3 AND DUP2 OR SWAP1 SWAP3 SSTORE SWAP6 DUP8 AND DUP4 MSTORE DUP2 DUP4 KECCAK256 DUP1 SLOAD DUP8 AND DUP3 OR SWAP1 SSTORE SWAP4 DUP7 AND DUP3 MSTORE DUP1 DUP3 KECCAK256 DUP1 SLOAD DUP7 AND DUP6 OR SWAP1 SSTORE SWAP2 SWAP1 SWAP5 AND DUP5 MSTORE DUP1 DUP5 KECCAK256 DUP1 SLOAD DUP5 AND DUP4 OR SWAP1 SSTORE CALLER DUP5 MSTORE SWAP1 SWAP3 KECCAK256 DUP1 SLOAD SWAP1 SWAP2 AND SWAP1 SWAP2 OR SWAP1 SSTORE POP PUSH3 0x858 SWAP2 POP POP JUMP JUMPDEST CALLER SWAP1 JUMP JUMPDEST PUSH1 0x5 DUP1 SLOAD PUSH1 0x1 PUSH1 0x1 PUSH1 0xA0 SHL SUB DUP4 DUP2 AND PUSH1 0x1 PUSH1 0x1 PUSH1 0xA0 SHL SUB NOT DUP4 AND DUP2 OR SWAP1 SWAP4 SSTORE PUSH1 0x40 MLOAD SWAP2 AND SWAP2 SWAP1 DUP3 SWAP1 PUSH32 0x8BE0079C531659141344CD1FD0A4F28419497F9722A3DAAFE3B4186F6B6457E0 SWAP1 PUSH1 0x0 SWAP1 LOG3 POP POP JUMP JUMPDEST PUSH1 0x1 PUSH1 0x1 PUSH1 0xA0 SHL SUB DUP3 AND PUSH3 0x391 JUMPI PUSH1 0x40 MLOAD PUSH3 0x461BCD PUSH1 0xE5 SHL DUP2 MSTORE PUSH1 0x20 PUSH1 0x4 DUP3 ADD MSTORE PUSH1 0x1F PUSH1 0x24 DUP3 ADD MSTORE PUSH32 0x45524332303A206D696E7420746F20746865207A65726F206164647265737300 PUSH1 0x44 DUP3 ADD MSTORE PUSH1 0x64 ADD PUSH3 0xEE JUMP JUMPDEST DUP1 PUSH1 0x2 PUSH1 0x0 DUP3 DUP3 SLOAD PUSH3 0x3A5 SWAP2 SWAP1 PUSH3 0x842 JUMP JUMPDEST SWAP1 SWAP2 SSTORE POP POP PUSH1 0x1 PUSH1 0x1 PUSH1 0xA0 SHL SUB DUP3 AND PUSH1 0x0 DUP2 DUP2 MSTORE PUSH1 0x20 DUP2 DUP2 MSTORE PUSH1 0x40 DUP1 DUP4 KECCAK256 DUP1 SLOAD DUP7 ADD SWAP1 SSTORE MLOAD DUP5 DUP2 MSTORE PUSH32 0xDDF252AD1BE2C89B69C2B068FC378DAA952BA7F163C4A11628F55A4DF523B3EF SWAP2 ADD PUSH1 0x40 MLOAD DUP1 SWAP2 SUB SWAP1 LOG3 POP POP JUMP JUMPDEST POP POP POP JUMP JUMPDEST PUSH4 0x4E487B71 PUSH1 0xE0 SHL PUSH1 0x0 MSTORE PUSH1 0x41 PUSH1 0x4 MSTORE PUSH1 0x24 PUSH1 0x0 REVERT JUMPDEST PUSH1 0x0 DUP3 PUSH1 0x1F DUP4 ADD SLT PUSH3 0x429 JUMPI PUSH1 0x0 DUP1 REVERT JUMPDEST DUP2 MLOAD PUSH1 0x1 PUSH1 0x1 PUSH1 0x40 SHL SUB DUP1 DUP3 GT ISZERO PUSH3 0x446 JUMPI PUSH3 0x446 PUSH3 0x401 JUMP JUMPDEST PUSH1 0x40 MLOAD PUSH1 0x1F DUP4 ADD PUSH1 0x1F NOT SWAP1 DUP2 AND PUSH1 0x3F ADD AND DUP2 ADD SWAP1 DUP3 DUP3 GT DUP2 DUP4 LT OR ISZERO PUSH3 0x471 JUMPI PUSH3 0x471 PUSH3 0x401 JUMP JUMPDEST DUP2 PUSH1 0x40 MSTORE DUP4 DUP2 MSTORE PUSH1 0x20 SWAP3 POP DUP7 DUP4 DUP6 DUP9 ADD ADD GT ISZERO PUSH3 0x48E JUMPI PUSH1 0x0 DUP1 REVERT JUMPDEST PUSH1 0x0 SWAP2 POP JUMPDEST DUP4 DUP3 LT ISZERO PUSH3 0x4B2 JUMPI DUP6 DUP3 ADD DUP4 ADD MLOAD DUP2 DUP4 ADD DUP5 ADD MSTORE SWAP1 DUP3 ADD SWAP1 PUSH3 0x493 JUMP JUMPDEST PUSH1 0x0 SWAP4 DUP2 ADD SWAP1 SWAP3 ADD SWAP3 SWAP1 SWAP3 MSTORE SWAP5 SWAP4 POP POP POP POP JUMP JUMPDEST DUP1 MLOAD PUSH1 0x1 PUSH1 0x1 PUSH1 0xA0 SHL SUB DUP2 AND DUP2 EQ PUSH3 0x4DE JUMPI PUSH1 0x0 DUP1 REVERT JUMPDEST SWAP2 SWAP1 POP JUMP JUMPDEST PUSH1 0x0 DUP1 PUSH1 0x0 DUP1 PUSH1 0x0 DUP1 PUSH1 0x0 PUSH1 0xE0 DUP9 DUP11 SUB SLT ISZERO PUSH3 0x4FF JUMPI PUSH1 0x0 DUP1 REVERT JUMPDEST DUP8 MLOAD PUSH1 0x1 PUSH1 0x1 PUSH1 0x40 SHL SUB DUP1 DUP3 GT ISZERO PUSH3 0x517 JUMPI PUSH1 0x0 DUP1 REVERT JUMPDEST PUSH3 0x525 DUP12 DUP4 DUP13 ADD PUSH3 0x417 JUMP JUMPDEST SWAP9 POP PUSH1 0x20 DUP11 ADD MLOAD SWAP2 POP DUP1 DUP3 GT ISZERO PUSH3 0x53C JUMPI PUSH1 0x0 DUP1 REVERT JUMPDEST POP PUSH3 0x54B DUP11 DUP3 DUP12 ADD PUSH3 0x417 JUMP JUMPDEST SWAP7 POP POP PUSH1 0x40 DUP9 ADD MLOAD SWAP5 POP PUSH3 0x563 PUSH1 0x60 DUP10 ADD PUSH3 0x4C6 JUMP JUMPDEST SWAP4 POP PUSH3 0x573 PUSH1 0x80 DUP10 ADD PUSH3 0x4C6 JUMP JUMPDEST SWAP3 POP PUSH3 0x583 PUSH1 0xA0 DUP10 ADD PUSH3 0x4C6 JUMP JUMPDEST SWAP2 POP PUSH3 0x593 PUSH1 0xC0 DUP10 ADD PUSH3 0x4C6 JUMP JUMPDEST SWAP1 POP SWAP3 SWAP6 SWAP9 SWAP2 SWAP5 SWAP8 POP SWAP3 SWAP6 POP JUMP JUMPDEST PUSH1 0x1 DUP2 DUP2 SHR SWAP1 DUP3 AND DUP1 PUSH3 0x5B6 JUMPI PUSH1 0x7F DUP3 AND SWAP2 POP JUMPDEST PUSH1 0x20 DUP3 LT DUP2 SUB PUSH3 0x5D7 JUMPI PUSH4 0x4E487B71 PUSH1 0xE0 SHL PUSH1 0x0 MSTORE PUSH1 0x22 PUSH1 0x4 MSTORE PUSH1 0x24 PUSH1 0x0 REVERT JUMPDEST POP SWAP2 SWAP1 POP JUMP JUMPDEST PUSH1 0x1F DUP3 GT ISZERO PUSH3 0x3FC JUMPI PUSH1 0x0 DUP2 DUP2 MSTORE PUSH1 0x20 DUP2 KECCAK256 PUSH1 0x1F DUP6 ADD PUSH1 0x5 SHR DUP2 ADD PUSH1 0x20 DUP7 LT ISZERO PUSH3 0x606 JUMPI POP DUP1 JUMPDEST PUSH1 0x1F DUP6 ADD PUSH1 0x5 SHR DUP3 ADD SWAP2 POP JUMPDEST DUP2 DUP2 LT ISZERO PUSH3 0x627 JUMPI DUP3 DUP2 SSTORE PUSH1 0x1 ADD PUSH3 0x612 JUMP JUMPDEST POP POP POP POP POP POP JUMP JUMPDEST DUP2 MLOAD PUSH1 0x1 PUSH1 0x1 PUSH1 0x40 SHL SUB DUP2 GT ISZERO PUSH3 0x64B JUMPI PUSH3 0x64B PUSH3 0x401 JUMP JUMPDEST PUSH3 0x663 DUP2 PUSH3 0x65C DUP5 SLOAD PUSH3 0x5A1 JUMP JUMPDEST DUP5 PUSH3 0x5DD JUMP JUMPDEST PUSH1 0x20 DUP1 PUSH1 0x1F DUP4 GT PUSH1 0x1 DUP2 EQ PUSH3 0x69B JUMPI PUSH1 0x0 DUP5 ISZERO PUSH3 0x682 JUMPI POP DUP6 DUP4 ADD MLOAD JUMPDEST PUSH1 0x0 NOT PUSH1 0x3 DUP7 SWAP1 SHL SHR NOT AND PUSH1 0x1 DUP6 SWAP1 SHL OR DUP6 SSTORE PUSH3 0x627 JUMP JUMPDEST PUSH1 0x0 DUP6 DUP2 MSTORE PUSH1 0x20 DUP2 KECCAK256 PUSH1 0x1F NOT DUP7 AND SWAP2 JUMPDEST DUP3 DUP2 LT ISZERO PUSH3 0x6CC JUMPI DUP9 DUP7 ADD MLOAD DUP3 SSTORE SWAP5 DUP5 ADD SWAP5 PUSH1 0x1 SWAP1 SWAP2 ADD SWAP1 DUP5 ADD PUSH3 0x6AB JUMP JUMPDEST POP DUP6 DUP3 LT ISZERO PUSH3 0x6EB JUMPI DUP8 DUP6 ADD MLOAD PUSH1 0x0 NOT PUSH1 0x3 DUP9 SWAP1 SHL PUSH1 0xF8 AND SHR NOT AND DUP2 SSTORE JUMPDEST POP POP POP POP POP PUSH1 0x1 SWAP1 DUP2 SHL ADD SWAP1 SSTORE POP JUMP JUMPDEST PUSH4 0x4E487B71 PUSH1 0xE0 SHL PUSH1 0x0 MSTORE PUSH1 0x11 PUSH1 0x4 MSTORE PUSH1 0x24 PUSH1 0x0 REVERT JUMPDEST PUSH1 0x1 DUP2 DUP2 JUMPDEST DUP1 DUP6 GT ISZERO PUSH3 0x752 JUMPI DUP2 PUSH1 0x0 NOT DIV DUP3 GT ISZERO PUSH3 0x736 JUMPI PUSH3 0x736 PUSH3 0x6FB JUMP JUMPDEST DUP1 DUP6 AND ISZERO PUSH3 0x744 JUMPI SWAP2 DUP2 MUL SWAP2 JUMPDEST SWAP4 DUP5 SHR SWAP4 SWAP1 DUP1 MUL SWAP1 PUSH3 0x716 JUMP JUMPDEST POP SWAP3 POP SWAP3 SWAP1 POP JUMP JUMPDEST PUSH1 0x0 DUP3 PUSH3 0x76B JUMPI POP PUSH1 0x1 PUSH3 0x80A JUMP JUMPDEST DUP2 PUSH3 0x77A JUMPI POP PUSH1 0x0 PUSH3 0x80A JUMP JUMPDEST DUP2 PUSH1 0x1 DUP2 EQ PUSH3 0x793 JUMPI PUSH1 0x2 DUP2 EQ PUSH3 0x79E JUMPI PUSH3 0x7BE JUMP JUMPDEST PUSH1 0x1 SWAP2 POP POP PUSH3 0x80A JUMP JUMPDEST PUSH1 0xFF DUP5 GT ISZERO PUSH3 0x7B2 JUMPI PUSH3 0x7B2 PUSH3 0x6FB JUMP JUMPDEST POP POP PUSH1 0x1 DUP3 SHL PUSH3 0x80A JUMP JUMPDEST POP PUSH1 0x20 DUP4 LT PUSH2 0x133 DUP4 LT AND PUSH1 0x4E DUP5 LT PUSH1 0xB DUP5 LT AND OR ISZERO PUSH3 0x7E3 JUMPI POP DUP2 DUP2 EXP PUSH3 0x80A JUMP JUMPDEST PUSH3 0x7EF DUP4 DUP4 PUSH3 0x711 JUMP JUMPDEST DUP1 PUSH1 0x0 NOT DIV DUP3 GT ISZERO PUSH3 0x806 JUMPI PUSH3 0x806 PUSH3 0x6FB JUMP JUMPDEST MUL SWAP1 POP JUMPDEST SWAP3 SWAP2 POP POP JUMP JUMPDEST PUSH1 0x0 PUSH3 0x821 PUSH1 0xFF DUP5 AND DUP4 PUSH3 0x75A JUMP JUMPDEST SWAP4 SWAP3 POP POP POP JUMP JUMPDEST DUP1 DUP3 MUL DUP2 ISZERO DUP3 DUP3 DIV DUP5 EQ OR PUSH3 0x80A JUMPI PUSH3 0x80A PUSH3 0x6FB JUMP JUMPDEST DUP1 DUP3 ADD DUP1 DUP3 GT ISZERO PUSH3 0x80A JUMPI PUSH3 0x80A PUSH3 0x6FB JUMP JUMPDEST PUSH2 0x1869 DUP1 PUSH3 0x868 PUSH1 0x0 CODECOPY PUSH1 0x0 RETURN INVALID PUSH1 0x80 PUSH1 0x40 MSTORE CALLVALUE DUP1 ISZERO PUSH2 0x10 JUMPI PUSH1 0x0 DUP1 REVERT JUMPDEST POP PUSH1 0x4 CALLDATASIZE LT PUSH2 0x227 JUMPI PUSH1 0x0 CALLDATALOAD PUSH1 0xE0 SHR DUP1 PUSH4 0x811BE779 GT PUSH2 0x130 JUMPI DUP1 PUSH4 0xBC063E1A GT PUSH2 0xB8 JUMPI DUP1 PUSH4 0xDD62ED3E GT PUSH2 0x7C JUMPI DUP1 PUSH4 0xDD62ED3E EQ PUSH2 0x473 JUMPI DUP1 PUSH4 0xE3663D6C EQ PUSH2 0x486 JUMPI DUP1 PUSH4 0xF29A3357 EQ PUSH2 0x4A9 JUMPI DUP1 PUSH4 0xF2FDE38B EQ PUSH2 0x4B2 JUMPI DUP1 PUSH4 0xF729F749 EQ PUSH2 0x4C5 JUMPI PUSH1 0x0 DUP1 REVERT JUMPDEST DUP1 PUSH4 0xBC063E1A EQ PUSH2 0x43C JUMPI DUP1 PUSH4 0xC3C27578 EQ PUSH2 0x445 JUMPI DUP1 PUSH4 0xD17812B8 EQ PUSH2 0x44E JUMPI DUP1 PUSH4 0xD73792A9 EQ PUSH2 0x461 JUMPI DUP1 PUSH4 0xD7E225B0 EQ PUSH2 0x46A JUMPI PUSH1 0x0 DUP1 REVERT JUMPDEST DUP1 PUSH4 0x95D89B41 GT PUSH2 0xFF JUMPI DUP1 PUSH4 0x95D89B41 EQ PUSH2 0x3F2 JUMPI DUP1 PUSH4 0xA1546687 EQ PUSH2 0x3FA JUMPI DUP1 PUSH4 0xA457C2D7 EQ PUSH2 0x40D JUMPI DUP1 PUSH4 0xA9059CBB EQ PUSH2 0x420 JUMPI DUP1 PUSH4 0xACB2AD6F EQ PUSH2 0x433 JUMPI PUSH1 0x0 DUP1 REVERT JUMPDEST DUP1 PUSH4 0x811BE779 EQ PUSH2 0x3B3 JUMPI DUP1 PUSH4 0x8456CB59 EQ PUSH2 0x3C6 JUMPI DUP1 PUSH4 0x8CDA6649 EQ PUSH2 0x3CE JUMPI DUP1 PUSH4 0x8DA5CB5B EQ PUSH2 0x3E1 JUMPI PUSH1 0x0 DUP1 REVERT JUMPDEST DUP1 PUSH4 0x42966C68 GT PUSH2 0x1B3 JUMPI DUP1 PUSH4 0x665A11CA GT PUSH2 0x182 JUMPI DUP1 PUSH4 0x665A11CA EQ PUSH2 0x349 JUMPI DUP1 PUSH4 0x6DB79437 EQ PUSH2 0x35C JUMPI DUP1 PUSH4 0x70A08231 EQ PUSH2 0x36F JUMPI DUP1 PUSH4 0x715018A6 EQ PUSH2 0x398 JUMPI DUP1 PUSH4 0x751FD179 EQ PUSH2 0x3A0 JUMPI PUSH1 0x0 DUP1 REVERT JUMPDEST DUP1 PUSH4 0x42966C68 EQ PUSH2 0x308 JUMPI DUP1 PUSH4 0x48DF5829 EQ PUSH2 0x31B JUMPI DUP1 PUSH4 0x56F43352 EQ PUSH2 0x32E JUMPI DUP1 PUSH4 0x5C975ABB EQ PUSH2 0x337 JUMPI PUSH1 0x0 DUP1 REVERT JUMPDEST DUP1 PUSH4 0x18160DDD GT PUSH2 0x1FA JUMPI DUP1 PUSH4 0x18160DDD EQ PUSH2 0x2B7 JUMPI DUP1 PUSH4 0x23B872DD EQ PUSH2 0x2C9 JUMPI DUP1 PUSH4 0x313CE567 EQ PUSH2 0x2DC JUMPI DUP1 PUSH4 0x39509351 EQ PUSH2 0x2EB JUMPI DUP1 PUSH4 0x3F4BA83A EQ PUSH2 0x2FE JUMPI PUSH1 0x0 DUP1 REVERT JUMPDEST DUP1 PUSH4 0x184A8C3 EQ PUSH2 0x22C JUMPI DUP1 PUSH4 0x6FDDE03 EQ PUSH2 0x264 JUMPI DUP1 PUSH4 0x95EA7B3 EQ PUSH2 0x279 JUMPI DUP1 PUSH4 0xC56AE3B EQ PUSH2 0x28C JUMPI JUMPDEST PUSH1 0x0 DUP1 REVERT JUMPDEST PUSH2 0x24F PUSH2 0x23A CALLDATASIZE PUSH1 0x4 PUSH2 0x157E JUMP JUMPDEST PUSH1 0x10 PUSH1 0x20 MSTORE PUSH1 0x0 SWAP1 DUP2 MSTORE PUSH1 0x40 SWAP1 KECCAK256 SLOAD PUSH1 0xFF AND DUP2 JUMP JUMPDEST PUSH1 0x40 MLOAD SWAP1 ISZERO ISZERO DUP2 MSTORE PUSH1 0x20 ADD JUMPDEST PUSH1 0x40 MLOAD DUP1 SWAP2 SUB SWAP1 RETURN JUMPDEST PUSH2 0x26C PUSH2 0x4CE JUMP JUMPDEST PUSH1 0x40 MLOAD PUSH2 0x25B SWAP2 SWAP1 PUSH2 0x15A0 JUMP JUMPDEST PUSH2 0x24F PUSH2 0x287 CALLDATASIZE PUSH1 0x4 PUSH2 0x15EE JUMP JUMPDEST PUSH2 0x560 JUMP JUMPDEST PUSH1 0x8 SLOAD PUSH2 0x29F SWAP1 PUSH1 0x1 PUSH1 0x1 PUSH1 0xA0 SHL SUB AND DUP2 JUMP JUMPDEST PUSH1 0x40 MLOAD PUSH1 0x1 PUSH1 0x1 PUSH1 0xA0 SHL SUB SWAP1 SWAP2 AND DUP2 MSTORE PUSH1 0x20 ADD PUSH2 0x25B JUMP JUMPDEST PUSH1 0x2 SLOAD JUMPDEST PUSH1 0x40 MLOAD SWAP1 DUP2 MSTORE PUSH1 0x20 ADD PUSH2 0x25B JUMP JUMPDEST PUSH2 0x24F PUSH2 0x2D7 CALLDATASIZE PUSH1 0x4 PUSH2 0x1618 JUMP JUMPDEST PUSH2 0x57A JUMP JUMPDEST PUSH1 0x40 MLOAD PUSH1 0x12 DUP2 MSTORE PUSH1 0x20 ADD PUSH2 0x25B JUMP JUMPDEST PUSH2 0x24F PUSH2 0x2F9 CALLDATASIZE PUSH1 0x4 PUSH2 0x15EE JUMP JUMPDEST PUSH2 0x59E JUMP JUMPDEST PUSH2 0x306 PUSH2 0x5C0 JUMP JUMPDEST STOP JUMPDEST PUSH2 0x306 PUSH2 0x316 CALLDATASIZE PUSH1 0x4 PUSH2 0x1654 JUMP JUMPDEST PUSH2 0x5D2 JUMP JUMPDEST PUSH1 0xA SLOAD PUSH2 0x29F SWAP1 PUSH1 0x1 PUSH1 0x1 PUSH1 0xA0 SHL SUB AND DUP2 JUMP JUMPDEST PUSH2 0x2BB PUSH1 0x7 SLOAD DUP2 JUMP JUMPDEST PUSH1 0x5 SLOAD PUSH1 0x1 PUSH1 0xA0 SHL SWAP1 DIV PUSH1 0xFF AND PUSH2 0x24F JUMP JUMPDEST PUSH1 0x9 SLOAD PUSH2 0x29F SWAP1 PUSH1 0x1 PUSH1 0x1 PUSH1 0xA0 SHL SUB AND DUP2 JUMP JUMPDEST PUSH2 0x306 PUSH2 0x36A CALLDATASIZE PUSH1 0x4 PUSH2 0x166D JUMP JUMPDEST PUSH2 0x5DF JUMP JUMPDEST PUSH2 0x2BB PUSH2 0x37D CALLDATASIZE PUSH1 0x4 PUSH2 0x157E JUMP JUMPDEST PUSH1 0x1 PUSH1 0x1 PUSH1 0xA0 SHL SUB AND PUSH1 0x0 SWAP1 DUP2 MSTORE PUSH1 0x20 DUP2 SWAP1 MSTORE PUSH1 0x40 SWAP1 KECCAK256 SLOAD SWAP1 JUMP JUMPDEST PUSH2 0x306 PUSH2 0x6C6 JUMP JUMPDEST PUSH2 0x306 PUSH2 0x3AE CALLDATASIZE PUSH1 0x4 PUSH2 0x168F JUMP JUMPDEST PUSH2 0x6D8 JUMP JUMPDEST PUSH1 0xB SLOAD PUSH2 0x29F SWAP1 PUSH1 0x1 PUSH1 0x1 PUSH1 0xA0 SHL SUB AND DUP2 JUMP JUMPDEST PUSH2 0x306 PUSH2 0x740 JUMP JUMPDEST PUSH2 0x306 PUSH2 0x3DC CALLDATASIZE PUSH1 0x4 PUSH2 0x168F JUMP JUMPDEST PUSH2 0x750 JUMP JUMPDEST PUSH1 0x5 SLOAD PUSH1 0x1 PUSH1 0x1 PUSH1 0xA0 SHL SUB AND PUSH2 0x29F JUMP JUMPDEST PUSH2 0x26C PUSH2 0x7B0 JUMP JUMPDEST PUSH2 0x306 PUSH2 0x408 CALLDATASIZE PUSH1 0x4 PUSH2 0x16CB JUMP JUMPDEST PUSH2 0x7BF JUMP JUMPDEST PUSH2 0x24F PUSH2 0x41B CALLDATASIZE PUSH1 0x4 PUSH2 0x15EE JUMP JUMPDEST PUSH2 0x83C JUMP JUMPDEST PUSH2 0x24F PUSH2 0x42E CALLDATASIZE PUSH1 0x4 PUSH2 0x15EE JUMP JUMPDEST PUSH2 0x8B7 JUMP JUMPDEST PUSH2 0x2BB PUSH1 0x6 SLOAD DUP2 JUMP JUMPDEST PUSH2 0x2BB PUSH2 0x1F4 DUP2 JUMP JUMPDEST PUSH2 0x2BB PUSH1 0xF SLOAD DUP2 JUMP JUMPDEST PUSH2 0x306 PUSH2 0x45C CALLDATASIZE PUSH1 0x4 PUSH2 0x16FD JUMP JUMPDEST PUSH2 0x8C5 JUMP JUMPDEST PUSH2 0x2BB PUSH2 0x2710 DUP2 JUMP JUMPDEST PUSH2 0x2BB PUSH1 0xE SLOAD DUP2 JUMP JUMPDEST PUSH2 0x2BB PUSH2 0x481 CALLDATASIZE PUSH1 0x4 PUSH2 0x1751 JUMP JUMPDEST PUSH2 0xAA8 JUMP JUMPDEST PUSH2 0x24F PUSH2 0x494 CALLDATASIZE PUSH1 0x4 PUSH2 0x157E JUMP JUMPDEST PUSH1 0x11 PUSH1 0x20 MSTORE PUSH1 0x0 SWAP1 DUP2 MSTORE PUSH1 0x40 SWAP1 KECCAK256 SLOAD PUSH1 0xFF AND DUP2 JUMP JUMPDEST PUSH2 0x2BB PUSH1 0xC SLOAD DUP2 JUMP JUMPDEST PUSH2 0x306 PUSH2 0x4C0 CALLDATASIZE PUSH1 0x4 PUSH2 0x157E JUMP JUMPDEST PUSH2 0xAD3 JUMP JUMPDEST PUSH2 0x2BB PUSH1 0xD SLOAD DUP2 JUMP JUMPDEST PUSH1 0x60 PUSH1 0x3 DUP1 SLOAD PUSH2 0x4DD SWAP1 PUSH2 0x1784 JUMP JUMPDEST DUP1 PUSH1 0x1F ADD PUSH1 0x20 DUP1 SWAP2 DIV MUL PUSH1 0x20 ADD PUSH1 0x40 MLOAD SWAP1 DUP2 ADD PUSH1 0x40 MSTORE DUP1 SWAP3 SWAP2 SWAP1 DUP2 DUP2 MSTORE PUSH1 0x20 ADD DUP3 DUP1 SLOAD PUSH2 0x509 SWAP1 PUSH2 0x1784 JUMP JUMPDEST DUP1 ISZERO PUSH2 0x556 JUMPI DUP1 PUSH1 0x1F LT PUSH2 0x52B JUMPI PUSH2 0x100 DUP1 DUP4 SLOAD DIV MUL DUP4 MSTORE SWAP2 PUSH1 0x20 ADD SWAP2 PUSH2 0x556 JUMP JUMPDEST DUP3 ADD SWAP2 SWAP1 PUSH1 0x0 MSTORE PUSH1 0x20 PUSH1 0x0 KECCAK256 SWAP1 JUMPDEST DUP2 SLOAD DUP2 MSTORE SWAP1 PUSH1 0x1 ADD SWAP1 PUSH1 0x20 ADD DUP1 DUP4 GT PUSH2 0x539 JUMPI DUP3 SWAP1 SUB PUSH1 0x1F AND DUP3 ADD SWAP2 JUMPDEST POP POP POP POP POP SWAP1 POP SWAP1 JUMP JUMPDEST PUSH1 0x0 CALLER PUSH2 0x56E DUP2 DUP6 DUP6 PUSH2 0xB49 JUMP JUMPDEST PUSH1 0x1 SWAP2 POP POP JUMPDEST SWAP3 SWAP2 POP POP JUMP JUMPDEST PUSH1 0x0 CALLER PUSH2 0x588 DUP6 DUP3 DUP6 PUSH2 0xC6E JUMP JUMPDEST PUSH2 0x593 DUP6 DUP6 DUP6 PUSH2 0xCE8 JUMP JUMPDEST POP PUSH1 0x1 SWAP5 SWAP4 POP POP POP POP JUMP JUMPDEST PUSH1 0x0 CALLER PUSH2 0x56E DUP2 DUP6 DUP6 PUSH2 0x5B1 DUP4 DUP4 PUSH2 0xAA8 JUMP JUMPDEST PUSH2 0x5BB SWAP2 SWAP1 PUSH2 0x17D4 JUMP JUMPDEST PUSH2 0xB49 JUMP JUMPDEST PUSH2 0x5C8 PUSH2 0xF6E JUMP JUMPDEST PUSH2 0x5D0 PUSH2 0xFC8 JUMP JUMPDEST JUMP JUMPDEST PUSH2 0x5DC CALLER DUP3 PUSH2 0x101D JUMP JUMPDEST POP JUMP JUMPDEST PUSH2 0x5E7 PUSH2 0xF6E JUMP JUMPDEST PUSH2 0x1F4 DUP3 GT ISZERO PUSH2 0x636 JUMPI PUSH1 0x40 MLOAD PUSH3 0x461BCD PUSH1 0xE5 SHL DUP2 MSTORE PUSH1 0x20 PUSH1 0x4 DUP3 ADD MSTORE PUSH1 0x15 PUSH1 0x24 DUP3 ADD MSTORE PUSH21 0xA8E4C2DCE6CCCAE440CCCACA40E8DEDE40D0D2CED PUSH1 0x5B SHL PUSH1 0x44 DUP3 ADD MSTORE PUSH1 0x64 ADD JUMPDEST PUSH1 0x40 MLOAD DUP1 SWAP2 SUB SWAP1 REVERT JUMPDEST PUSH2 0x1F4 DUP2 GT ISZERO PUSH2 0x67F JUMPI PUSH1 0x40 MLOAD PUSH3 0x461BCD PUSH1 0xE5 SHL DUP2 MSTORE PUSH1 0x20 PUSH1 0x4 DUP3 ADD MSTORE PUSH1 0x14 PUSH1 0x24 DUP3 ADD MSTORE PUSH20 0xA8E4C2C8D2DCCE40CCCACA40E8DEDE40D0D2CED PUSH1 0x63 SHL PUSH1 0x44 DUP3 ADD MSTORE PUSH1 0x64 ADD PUSH2 0x62D JUMP JUMPDEST PUSH1 0x6 DUP3 SWAP1 SSTORE PUSH1 0x7 DUP2 SWAP1 SSTORE PUSH1 0x40 DUP1 MLOAD DUP4 DUP2 MSTORE PUSH1 0x20 DUP2 ADD DUP4 SWAP1 MSTORE PUSH32 0x5C6323BF1C2D7AAEA2C091A4751C1C87AF7F2864650C336507A77D0557AF37A1 SWAP2 ADD PUSH1 0x40 MLOAD DUP1 SWAP2 SUB SWAP1 LOG1 POP POP JUMP JUMPDEST PUSH2 0x6CE PUSH2 0xF6E JUMP JUMPDEST PUSH2 0x5D0 PUSH1 0x0 PUSH2 0x1147 JUMP JUMPDEST PUSH2 0x6E0 PUSH2 0xF6E JUMP JUMPDEST PUSH1 0x1 PUSH1 0x1 PUSH1 0xA0 SHL SUB DUP3 AND PUSH1 0x0 DUP2 DUP2 MSTORE PUSH1 0x10 PUSH1 0x20 SWAP1 DUP2 MSTORE PUSH1 0x40 SWAP2 DUP3 SWAP1 KECCAK256 DUP1 SLOAD PUSH1 0xFF NOT AND DUP6 ISZERO ISZERO SWAP1 DUP2 OR SWAP1 SWAP2 SSTORE SWAP2 MLOAD SWAP2 DUP3 MSTORE PUSH32 0x6C3ADFEE332544F29232690459F4FE23A1C9573EFBAAC65C9FC033355FB413F0 SWAP2 ADD JUMPDEST PUSH1 0x40 MLOAD DUP1 SWAP2 SUB SWAP1 LOG2 POP POP JUMP JUMPDEST PUSH2 0x748 PUSH2 0xF6E JUMP JUMPDEST PUSH2 0x5D0 PUSH2 0x1199 JUMP JUMPDEST PUSH2 0x758 PUSH2 0xF6E JUMP JUMPDEST PUSH1 0x1 PUSH1 0x1 PUSH1 0xA0 SHL SUB DUP3 AND PUSH1 0x0 DUP2 DUP2 MSTORE PUSH1 0x11 PUSH1 0x20 SWAP1 DUP2 MSTORE PUSH1 0x40 SWAP2 DUP3 SWAP1 KECCAK256 DUP1 SLOAD PUSH1 0xFF NOT AND DUP6 ISZERO ISZERO SWAP1 DUP2 OR SWAP1 SWAP2 SSTORE SWAP2 MLOAD SWAP2 DUP3 MSTORE PUSH32 0xED8A709BB0366A804B0D8D7A204A70513AE101A65E1CAFB728766C2FF31F2AE6 SWAP2 ADD PUSH2 0x734 JUMP JUMPDEST PUSH1 0x60 PUSH1 0x4 DUP1 SLOAD PUSH2 0x4DD SWAP1 PUSH2 0x1784 JUMP JUMPDEST PUSH2 0x7C7 PUSH2 0xF6E JUMP JUMPDEST DUP1 DUP3 PUSH2 0x7D3 DUP6 DUP8 PUSH2 0x17D4 JUMP JUMPDEST PUSH2 0x7DD SWAP2 SWAP1 PUSH2 0x17D4 JUMP JUMPDEST PUSH2 0x7E7 SWAP2 SWAP1 PUSH2 0x17D4 JUMP JUMPDEST PUSH1 0x64 EQ PUSH2 0x828 JUMPI PUSH1 0x40 MLOAD PUSH3 0x461BCD PUSH1 0xE5 SHL DUP2 MSTORE PUSH1 0x20 PUSH1 0x4 DUP3 ADD MSTORE PUSH1 0xF PUSH1 0x24 DUP3 ADD MSTORE PUSH15 0x4D75737420746F74616C2031303025 PUSH1 0x88 SHL PUSH1 0x44 DUP3 ADD MSTORE PUSH1 0x64 ADD PUSH2 0x62D JUMP JUMPDEST PUSH1 0xC SWAP4 SWAP1 SWAP4 SSTORE PUSH1 0xD SWAP2 SWAP1 SWAP2 SSTORE PUSH1 0xE SSTORE PUSH1 0xF SSTORE JUMP JUMPDEST PUSH1 0x0 CALLER DUP2 PUSH2 0x84A DUP3 DUP7 PUSH2 0xAA8 JUMP JUMPDEST SWAP1 POP DUP4 DUP2 LT ISZERO PUSH2 0x8AA JUMPI PUSH1 0x40 MLOAD PUSH3 0x461BCD PUSH1 0xE5 SHL DUP2 MSTORE PUSH1 0x20 PUSH1 0x4 DUP3 ADD MSTORE PUSH1 0x25 PUSH1 0x24 DUP3 ADD MSTORE PUSH32 0x45524332303A2064656372656173656420616C6C6F77616E63652062656C6F77 PUSH1 0x44 DUP3 ADD MSTORE PUSH5 0x207A65726F PUSH1 0xD8 SHL PUSH1 0x64 DUP3 ADD MSTORE PUSH1 0x84 ADD PUSH2 0x62D JUMP JUMPDEST PUSH2 0x593 DUP3 DUP7 DUP7 DUP5 SUB PUSH2 0xB49 JUMP JUMPDEST PUSH1 0x0 CALLER PUSH2 0x56E DUP2 DUP6 DUP6 PUSH2 0xCE8 JUMP JUMPDEST PUSH2 0x8CD PUSH2 0xF6E JUMP JUMPDEST PUSH1 0x1 PUSH1 0x1 PUSH1 0xA0 SHL SUB DUP5 AND PUSH2 0x91A JUMPI PUSH1 0x40 MLOAD PUSH3 0x461BCD PUSH1 0xE5 SHL DUP2 MSTORE PUSH1 0x20 PUSH1 0x4 DUP3 ADD MSTORE PUSH1 0x14 PUSH1 0x24 DUP3 ADD MSTORE PUSH20 0x125B9D985B1A59081CDD185ADA5B99C81C1BDBDB PUSH1 0x62 SHL PUSH1 0x44 DUP3 ADD MSTORE PUSH1 0x64 ADD PUSH2 0x62D JUMP JUMPDEST PUSH1 0x1 PUSH1 0x1 PUSH1 0xA0 SHL SUB DUP4 AND PUSH2 0x969 JUMPI PUSH1 0x40 MLOAD PUSH3 0x461BCD PUSH1 0xE5 SHL DUP2 MSTORE PUSH1 0x20 PUSH1 0x4 DUP3 ADD MSTORE PUSH1 0x16 PUSH1 0x24 DUP3 ADD MSTORE PUSH22 0x125B9D985B1A59081B1A5C5D5A591A5D1E481C1BDBDB PUSH1 0x52 SHL PUSH1 0x44 DUP3 ADD MSTORE PUSH1 0x64 ADD PUSH2 0x62D JUMP JUMPDEST PUSH1 0x1 PUSH1 0x1 PUSH1 0xA0 SHL SUB DUP3 AND PUSH2 0x9B7 JUMPI PUSH1 0x40 MLOAD PUSH3 0x461BCD PUSH1 0xE5 SHL DUP2 MSTORE PUSH1 0x20 PUSH1 0x4 DUP3 ADD MSTORE PUSH1 0x15 PUSH1 0x24 DUP3 ADD MSTORE PUSH21 0x125B9D985B1A59081D1C99585CDD5C9E481C1BDBDB PUSH1 0x5A SHL PUSH1 0x44 DUP3 ADD MSTORE PUSH1 0x64 ADD PUSH2 0x62D JUMP JUMPDEST PUSH1 0x1 PUSH1 0x1 PUSH1 0xA0 SHL SUB DUP2 AND PUSH2 0xA0D JUMPI PUSH1 0x40 MLOAD PUSH3 0x461BCD PUSH1 0xE5 SHL DUP2 MSTORE PUSH1 0x20 PUSH1 0x4 DUP3 ADD MSTORE PUSH1 0x18 PUSH1 0x24 DUP3 ADD MSTORE PUSH32 0x496E76616C696420646576656C6F706D656E7420706F6F6C0000000000000000 PUSH1 0x44 DUP3 ADD MSTORE PUSH1 0x64 ADD PUSH2 0x62D JUMP JUMPDEST PUSH1 0x8 DUP1 SLOAD PUSH1 0x1 PUSH1 0x1 PUSH1 0xA0 SHL SUB DUP7 DUP2 AND PUSH1 0x1 PUSH1 0x1 PUSH1 0xA0 SHL SUB NOT SWAP3 DUP4 AND DUP2 OR SWAP1 SWAP4 SSTORE PUSH1 0x9 DUP1 SLOAD DUP8 DUP4 AND SWAP1 DUP5 AND DUP2 OR SWAP1 SWAP2 SSTORE PUSH1 0xA DUP1 SLOAD DUP8 DUP5 AND SWAP1 DUP6 AND DUP2 OR SWAP1 SWAP2 SSTORE PUSH1 0xB DUP1 SLOAD SWAP4 DUP8 AND SWAP4 SWAP1 SWAP5 AND DUP4 OR SWAP1 SWAP4 SSTORE PUSH1 0x40 DUP1 MLOAD SWAP5 DUP6 MSTORE PUSH1 0x20 DUP6 ADD SWAP2 SWAP1 SWAP2 MSTORE DUP4 ADD SWAP2 SWAP1 SWAP2 MSTORE PUSH1 0x60 DUP3 ADD MSTORE PUSH32 0xB86EDABC4DE9262826561AF4D772EDB8235CB246857CD06C59D823A353769487 SWAP1 PUSH1 0x80 ADD PUSH1 0x40 MLOAD DUP1 SWAP2 SUB SWAP1 LOG1 POP POP POP POP JUMP JUMPDEST PUSH1 0x1 PUSH1 0x1 PUSH1 0xA0 SHL SUB SWAP2 DUP3 AND PUSH1 0x0 SWAP1 DUP2 MSTORE PUSH1 0x1 PUSH1 0x20 SWAP1 DUP2 MSTORE PUSH1 0x40 DUP1 DUP4 KECCAK256 SWAP4 SWAP1 SWAP5 AND DUP3 MSTORE SWAP2 SWAP1 SWAP2 MSTORE KECCAK256 SLOAD SWAP1 JUMP JUMPDEST PUSH2 0xADB PUSH2 0xF6E JUMP JUMPDEST PUSH1 0x1 PUSH1 0x1 PUSH1 0xA0 SHL SUB DUP2 AND PUSH2 0xB40 JUMPI PUSH1 0x40 MLOAD PUSH3 0x461BCD PUSH1 0xE5 SHL DUP2 MSTORE PUSH1 0x20 PUSH1 0x4 DUP3 ADD MSTORE PUSH1 0x26 PUSH1 0x24 DUP3 ADD MSTORE PUSH32 0x4F776E61626C653A206E6577206F776E657220697320746865207A65726F2061 PUSH1 0x44 DUP3 ADD MSTORE PUSH6 0x646472657373 PUSH1 0xD0 SHL PUSH1 0x64 DUP3 ADD MSTORE PUSH1 0x84 ADD PUSH2 0x62D JUMP JUMPDEST PUSH2 0x5DC DUP2 PUSH2 0x1147 JUMP JUMPDEST PUSH1 0x1 PUSH1 0x1 PUSH1 0xA0 SHL SUB DUP4 AND PUSH2 0xBAB JUMPI PUSH1 0x40 MLOAD PUSH3 0x461BCD PUSH1 0xE5 SHL DUP2 MSTORE PUSH1 0x20 PUSH1 0x4 DUP3 ADD MSTORE PUSH1 0x24 DUP1 DUP3 ADD MSTORE PUSH32 0x45524332303A20617070726F76652066726F6D20746865207A65726F20616464 PUSH1 0x44 DUP3 ADD MSTORE PUSH4 0x72657373 PUSH1 0xE0 SHL PUSH1 0x64 DUP3 ADD MSTORE PUSH1 0x84 ADD PUSH2 0x62D JUMP JUMPDEST PUSH1 0x1 PUSH1 0x1 PUSH1 0xA0 SHL SUB DUP3 AND PUSH2 0xC0C JUMPI PUSH1 0x40 MLOAD PUSH3 0x461BCD PUSH1 0xE5 SHL DUP2 MSTORE PUSH1 0x20 PUSH1 0x4 DUP3 ADD MSTORE PUSH1 0x22 PUSH1 0x24 DUP3 ADD MSTORE PUSH32 0x45524332303A20617070726F766520746F20746865207A65726F206164647265 PUSH1 0x44 DUP3 ADD MSTORE PUSH2 0x7373 PUSH1 0xF0 SHL PUSH1 0x64 DUP3 ADD MSTORE PUSH1 0x84 ADD PUSH2 0x62D JUMP JUMPDEST PUSH1 0x1 PUSH1 0x1 PUSH1 0xA0 SHL SUB DUP4 DUP2 AND PUSH1 0x0 DUP2 DUP2 MSTORE PUSH1 0x1 PUSH1 0x20 SWAP1 DUP2 MSTORE PUSH1 0x40 DUP1 DUP4 KECCAK256 SWAP5 DUP8 AND DUP1 DUP5 MSTORE SWAP5 DUP3 MSTORE SWAP2 DUP3 SWAP1 KECCAK256 DUP6 SWAP1 SSTORE SWAP1 MLOAD DUP5 DUP2 MSTORE PUSH32 0x8C5BE1E5EBEC7D5BD14F71427D1E84F3DD0314C0F7B2291E5B200AC8C7C3B925 SWAP2 ADD JUMPDEST PUSH1 0x40 MLOAD DUP1 SWAP2 SUB SWAP1 LOG3 POP POP POP JUMP JUMPDEST PUSH1 0x0 PUSH2 0xC7A DUP5 DUP5 PUSH2 0xAA8 JUMP JUMPDEST SWAP1 POP PUSH1 0x0 NOT DUP2 EQ PUSH2 0xCE2 JUMPI DUP2 DUP2 LT ISZERO PUSH2 0xCD5 JUMPI PUSH1 0x40 MLOAD PUSH3 0x461BCD PUSH1 0xE5 SHL DUP2 MSTORE PUSH1 0x20 PUSH1 0x4 DUP3 ADD MSTORE PUSH1 0x1D PUSH1 0x24 DUP3 ADD MSTORE PUSH32 0x45524332303A20696E73756666696369656E7420616C6C6F77616E6365000000 PUSH1 0x44 DUP3 ADD MSTORE PUSH1 0x64 ADD PUSH2 0x62D JUMP JUMPDEST PUSH2 0xCE2 DUP5 DUP5 DUP5 DUP5 SUB PUSH2 0xB49 JUMP JUMPDEST POP POP POP POP JUMP JUMPDEST PUSH2 0xCF0 PUSH2 0x11DC JUMP JUMPDEST PUSH1 0x1 PUSH1 0x1 PUSH1 0xA0 SHL SUB DUP4 AND PUSH2 0xD46 JUMPI PUSH1 0x40 MLOAD PUSH3 0x461BCD PUSH1 0xE5 SHL DUP2 MSTORE PUSH1 0x20 PUSH1 0x4 DUP3 ADD MSTORE PUSH1 0x1A PUSH1 0x24 DUP3 ADD MSTORE PUSH32 0x5472616E736665722066726F6D207A65726F2061646472657373000000000000 PUSH1 0x44 DUP3 ADD MSTORE PUSH1 0x64 ADD PUSH2 0x62D JUMP JUMPDEST PUSH1 0x1 PUSH1 0x1 PUSH1 0xA0 SHL SUB DUP3 AND PUSH2 0xD9C JUMPI PUSH1 0x40 MLOAD PUSH3 0x461BCD PUSH1 0xE5 SHL DUP2 MSTORE PUSH1 0x20 PUSH1 0x4 DUP3 ADD MSTORE PUSH1 0x18 PUSH1 0x24 DUP3 ADD MSTORE PUSH32 0x5472616E7366657220746F207A65726F20616464726573730000000000000000 PUSH1 0x44 DUP3 ADD MSTORE PUSH1 0x64 ADD PUSH2 0x62D JUMP JUMPDEST PUSH1 0x0 DUP2 GT PUSH2 0xDFE JUMPI PUSH1 0x40 MLOAD PUSH3 0x461BCD PUSH1 0xE5 SHL DUP2 MSTORE PUSH1 0x20 PUSH1 0x4 DUP3 ADD MSTORE PUSH1 0x29 PUSH1 0x24 DUP3 ADD MSTORE PUSH32 0x5472616E7366657220616D6F756E74206D757374206265206772656174657220 PUSH1 0x44 DUP3 ADD MSTORE PUSH9 0x7468616E207A65726F PUSH1 0xB8 SHL PUSH1 0x64 DUP3 ADD MSTORE PUSH1 0x84 ADD PUSH2 0x62D JUMP JUMPDEST PUSH1 0x1 PUSH1 0x1 PUSH1 0xA0 SHL SUB DUP4 AND PUSH1 0x0 SWAP1 DUP2 MSTORE PUSH1 0x10 PUSH1 0x20 MSTORE PUSH1 0x40 DUP2 KECCAK256 SLOAD PUSH1 0xFF AND ISZERO DUP1 ISZERO PUSH2 0xE40 JUMPI POP PUSH1 0x1 PUSH1 0x1 PUSH1 0xA0 SHL SUB DUP4 AND PUSH1 0x0 SWAP1 DUP2 MSTORE PUSH1 0x10 PUSH1 0x20 MSTORE PUSH1 0x40 SWAP1 KECCAK256 SLOAD PUSH1 0xFF AND ISZERO JUMPDEST SWAP1 POP DUP1 ISZERO PUSH2 0xF63 JUMPI PUSH1 0x1 PUSH1 0x1 PUSH1 0xA0 SHL SUB DUP5 AND PUSH1 0x0 SWAP1 DUP2 MSTORE PUSH1 0x11 PUSH1 0x20 MSTORE PUSH1 0x40 DUP2 KECCAK256 SLOAD PUSH1 0xFF AND DUP1 PUSH2 0xE87 JUMPI POP PUSH1 0x1 PUSH1 0x1 PUSH1 0xA0 SHL SUB DUP5 AND PUSH1 0x0 SWAP1 DUP2 MSTORE PUSH1 0x11 PUSH1 0x20 MSTORE PUSH1 0x40 SWAP1 KECCAK256 SLOAD PUSH1 0xFF AND JUMPDEST ISZERO PUSH2 0xEAE JUMPI PUSH2 0x2710 PUSH1 0x7 SLOAD DUP5 PUSH2 0xE9D SWAP2 SWAP1 PUSH2 0x17E7 JUMP JUMPDEST PUSH2 0xEA7 SWAP2 SWAP1 PUSH2 0x17FE JUMP JUMPDEST SWAP1 POP PUSH2 0xECC JUMP JUMPDEST PUSH2 0x2710 PUSH1 0x6 SLOAD DUP5 PUSH2 0xEBF SWAP2 SWAP1 PUSH2 0x17E7 JUMP JUMPDEST PUSH2 0xEC9 SWAP2 SWAP1 PUSH2 0x17FE JUMP JUMPDEST SWAP1 POP JUMPDEST DUP1 ISZERO PUSH2 0xF52 JUMPI PUSH1 0x0 PUSH2 0xEDE DUP3 DUP6 PUSH2 0x1820 JUMP JUMPDEST SWAP1 POP PUSH2 0xEEB DUP7 ADDRESS DUP5 PUSH2 0x1229 JUMP JUMPDEST PUSH2 0xEF4 DUP3 PUSH2 0x13CD JUMP JUMPDEST PUSH2 0xEFF DUP7 DUP7 DUP4 PUSH2 0x1229 JUMP JUMPDEST DUP5 PUSH1 0x1 PUSH1 0x1 PUSH1 0xA0 SHL SUB AND DUP7 PUSH1 0x1 PUSH1 0x1 PUSH1 0xA0 SHL SUB AND PUSH32 0xF228DE527FC1B9843BAAC03B9A04565473A263375950E63435D4138464386F46 DUP5 PUSH1 0x40 MLOAD PUSH2 0xF44 SWAP2 DUP2 MSTORE PUSH1 0x20 ADD SWAP1 JUMP JUMPDEST PUSH1 0x40 MLOAD DUP1 SWAP2 SUB SWAP1 LOG3 POP PUSH2 0xF5D JUMP JUMPDEST PUSH2 0xF5D DUP6 DUP6 DUP6 PUSH2 0x1229 JUMP JUMPDEST POP PUSH2 0xCE2 JUMP JUMPDEST PUSH2 0xCE2 DUP5 DUP5 DUP5 PUSH2 0x1229 JUMP JUMPDEST PUSH1 0x5 SLOAD PUSH1 0x1 PUSH1 0x1 PUSH1 0xA0 SHL SUB AND CALLER EQ PUSH2 0x5D0 JUMPI PUSH1 0x40 MLOAD PUSH3 0x461BCD PUSH1 0xE5 SHL DUP2 MSTORE PUSH1 0x20 PUSH1 0x4 DUP3 ADD DUP2 SWAP1 MSTORE PUSH1 0x24 DUP3 ADD MSTORE PUSH32 0x4F776E61626C653A2063616C6C6572206973206E6F7420746865206F776E6572 PUSH1 0x44 DUP3 ADD MSTORE PUSH1 0x64 ADD PUSH2 0x62D JUMP JUMPDEST PUSH2 0xFD0 PUSH2 0x1512 JUMP JUMPDEST PUSH1 0x5 DUP1 SLOAD PUSH1 0xFF PUSH1 0xA0 SHL NOT AND SWAP1 SSTORE PUSH32 0x5DB9EE0A495BF2E6FF9C91A7834C1BA4FDD244A5E8AA4E537BD38AEAE4B073AA CALLER JUMPDEST PUSH1 0x40 MLOAD PUSH1 0x1 PUSH1 0x1 PUSH1 0xA0 SHL SUB SWAP1 SWAP2 AND DUP2 MSTORE PUSH1 0x20 ADD PUSH1 0x40 MLOAD DUP1 SWAP2 SUB SWAP1 LOG1 JUMP JUMPDEST PUSH1 0x1 PUSH1 0x1 PUSH1 0xA0 SHL SUB DUP3 AND PUSH2 0x107D JUMPI PUSH1 0x40 MLOAD PUSH3 0x461BCD PUSH1 0xE5 SHL DUP2 MSTORE PUSH1 0x20 PUSH1 0x4 DUP3 ADD MSTORE PUSH1 0x21 PUSH1 0x24 DUP3 ADD MSTORE PUSH32 0x45524332303A206275726E2066726F6D20746865207A65726F20616464726573 PUSH1 0x44 DUP3 ADD MSTORE PUSH1 0x73 PUSH1 0xF8 SHL PUSH1 0x64 DUP3 ADD MSTORE PUSH1 0x84 ADD PUSH2 0x62D JUMP JUMPDEST PUSH1 0x1 PUSH1 0x1 PUSH1 0xA0 SHL SUB DUP3 AND PUSH1 0x0 SWAP1 DUP2 MSTORE PUSH1 0x20 DUP2 SWAP1 MSTORE PUSH1 0x40 SWAP1 KECCAK256 SLOAD DUP2 DUP2 LT ISZERO PUSH2 0x10F1 JUMPI PUSH1 0x40 MLOAD PUSH3 0x461BCD PUSH1 0xE5 SHL DUP2 MSTORE PUSH1 0x20 PUSH1 0x4 DUP3 ADD MSTORE PUSH1 0x22 PUSH1 0x24 DUP3 ADD MSTORE PUSH32 0x45524332303A206275726E20616D6F756E7420657863656564732062616C616E PUSH1 0x44 DUP3 ADD MSTORE PUSH2 0x6365 PUSH1 0xF0 SHL PUSH1 0x64 DUP3 ADD MSTORE PUSH1 0x84 ADD PUSH2 0x62D JUMP JUMPDEST PUSH1 0x1 PUSH1 0x1 PUSH1 0xA0 SHL SUB DUP4 AND PUSH1 0x0 DUP2 DUP2 MSTORE PUSH1 0x20 DUP2 DUP2 MSTORE PUSH1 0x40 DUP1 DUP4 KECCAK256 DUP7 DUP7 SUB SWAP1 SSTORE PUSH1 0x2 DUP1 SLOAD DUP8 SWAP1 SUB SWAP1 SSTORE MLOAD DUP6 DUP2 MSTORE SWAP2 SWAP3 SWAP2 PUSH32 0xDDF252AD1BE2C89B69C2B068FC378DAA952BA7F163C4A11628F55A4DF523B3EF SWAP2 ADD PUSH2 0xC61 JUMP JUMPDEST PUSH1 0x5 DUP1 SLOAD PUSH1 0x1 PUSH1 0x1 PUSH1 0xA0 SHL SUB DUP4 DUP2 AND PUSH1 0x1 PUSH1 0x1 PUSH1 0xA0 SHL SUB NOT DUP4 AND DUP2 OR SWAP1 SWAP4 SSTORE PUSH1 0x40 MLOAD SWAP2 AND SWAP2 SWAP1 DUP3 SWAP1 PUSH32 0x8BE0079C531659141344CD1FD0A4F28419497F9722A3DAAFE3B4186F6B6457E0 SWAP1 PUSH1 0x0 SWAP1 LOG3 POP POP JUMP JUMPDEST PUSH2 0x11A1 PUSH2 0x11DC JUMP JUMPDEST PUSH1 0x5 DUP1 SLOAD PUSH1 0xFF PUSH1 0xA0 SHL NOT AND PUSH1 0x1 PUSH1 0xA0 SHL OR SWAP1 SSTORE PUSH32 0x62E78CEA01BEE320CD4E420270B5EA74000D11B0C9F74754EBDBFC544B05A258 PUSH2 0x1000 CALLER SWAP1 JUMP JUMPDEST PUSH1 0x5 SLOAD PUSH1 0x1 PUSH1 0xA0 SHL SWAP1 DIV PUSH1 0xFF AND ISZERO PUSH2 0x5D0 JUMPI PUSH1 0x40 MLOAD PUSH3 0x461BCD PUSH1 0xE5 SHL DUP2 MSTORE PUSH1 0x20 PUSH1 0x4 DUP3 ADD MSTORE PUSH1 0x10 PUSH1 0x24 DUP3 ADD MSTORE PUSH16 0x14185D5CD8589B194E881C185D5CD959 PUSH1 0x82 SHL PUSH1 0x44 DUP3 ADD MSTORE PUSH1 0x64 ADD PUSH2 0x62D JUMP JUMPDEST PUSH1 0x1 PUSH1 0x1 PUSH1 0xA0 SHL SUB DUP4 AND PUSH2 0x128D JUMPI PUSH1 0x40 MLOAD PUSH3 0x461BCD PUSH1 0xE5 SHL DUP2 MSTORE PUSH1 0x20 PUSH1 0x4 DUP3 ADD MSTORE PUSH1 0x25 PUSH1 0x24 DUP3 ADD MSTORE PUSH32 0x45524332303A207472616E736665722066726F6D20746865207A65726F206164 PUSH1 0x44 DUP3 ADD MSTORE PUSH5 0x6472657373 PUSH1 0xD8 SHL PUSH1 0x64 DUP3 ADD MSTORE PUSH1 0x84 ADD PUSH2 0x62D JUMP JUMPDEST PUSH1 0x1 PUSH1 0x1 PUSH1 0xA0 SHL SUB DUP3 AND PUSH2 0x12EF JUMPI PUSH1 0x40 MLOAD PUSH3 0x461BCD PUSH1 0xE5 SHL DUP2 MSTORE PUSH1 0x20 PUSH1 0x4 DUP3 ADD MSTORE PUSH1 0x23 PUSH1 0x24 DUP3 ADD MSTORE PUSH32 0x45524332303A207472616E7366657220746F20746865207A65726F2061646472 PUSH1 0x44 DUP3 ADD MSTORE PUSH3 0x657373 PUSH1 0xE8 SHL PUSH1 0x64 DUP3 ADD MSTORE PUSH1 0x84 ADD PUSH2 0x62D JUMP JUMPDEST PUSH1 0x1 PUSH1 0x1 PUSH1 0xA0 SHL SUB DUP4 AND PUSH1 0x0 SWAP1 DUP2 MSTORE PUSH1 0x20 DUP2 SWAP1 MSTORE PUSH1 0x40 SWAP1 KECCAK256 SLOAD DUP2 DUP2 LT ISZERO PUSH2 0x1367 JUMPI PUSH1 0x40 MLOAD PUSH3 0x461BCD PUSH1 0xE5 SHL DUP2 MSTORE PUSH1 0x20 PUSH1 0x4 DUP3 ADD MSTORE PUSH1 0x26 PUSH1 0x24 DUP3 ADD MSTORE PUSH32 0x45524332303A207472616E7366657220616D6F756E7420657863656564732062 PUSH1 0x44 DUP3 ADD MSTORE PUSH6 0x616C616E6365 PUSH1 0xD0 SHL PUSH1 0x64 DUP3 ADD MSTORE PUSH1 0x84 ADD PUSH2 0x62D JUMP JUMPDEST PUSH1 0x1 PUSH1 0x1 PUSH1 0xA0 SHL SUB DUP5 DUP2 AND PUSH1 0x0 DUP2 DUP2 MSTORE PUSH1 0x20 DUP2 DUP2 MSTORE PUSH1 0x40 DUP1 DUP4 KECCAK256 DUP8 DUP8 SUB SWAP1 SSTORE SWAP4 DUP8 AND DUP1 DUP4 MSTORE SWAP2 DUP5 SWAP1 KECCAK256 DUP1 SLOAD DUP8 ADD SWAP1 SSTORE SWAP3 MLOAD DUP6 DUP2 MSTORE SWAP1 SWAP3 PUSH32 0xDDF252AD1BE2C89B69C2B068FC378DAA952BA7F163C4A11628F55A4DF523B3EF SWAP2 ADD PUSH1 0x40 MLOAD DUP1 SWAP2 SUB SWAP1 LOG3 PUSH2 0xCE2 JUMP JUMPDEST PUSH1 0x0 PUSH1 0x64 PUSH1 0xC SLOAD DUP4 PUSH2 0x13DF SWAP2 SWAP1 PUSH2 0x17E7 JUMP JUMPDEST PUSH2 0x13E9 SWAP2 SWAP1 PUSH2 0x17FE JUMP JUMPDEST SWAP1 POP PUSH1 0x0 PUSH1 0x64 PUSH1 0xD SLOAD DUP5 PUSH2 0x13FD SWAP2 SWAP1 PUSH2 0x17E7 JUMP JUMPDEST PUSH2 0x1407 SWAP2 SWAP1 PUSH2 0x17FE JUMP JUMPDEST SWAP1 POP PUSH1 0x0 PUSH1 0x64 PUSH1 0xE SLOAD DUP6 PUSH2 0x141B SWAP2 SWAP1 PUSH2 0x17E7 JUMP JUMPDEST PUSH2 0x1425 SWAP2 SWAP1 PUSH2 0x17FE JUMP JUMPDEST SWAP1 POP PUSH1 0x0 DUP2 DUP4 PUSH2 0x1435 DUP7 DUP9 PUSH2 0x1820 JUMP JUMPDEST PUSH2 0x143F SWAP2 SWAP1 PUSH2 0x1820 JUMP JUMPDEST PUSH2 0x1449 SWAP2 SWAP1 PUSH2 0x1820 JUMP JUMPDEST SWAP1 POP DUP4 ISZERO PUSH2 0x1469 JUMPI PUSH1 0x8 SLOAD PUSH2 0x1469 SWAP1 ADDRESS SWAP1 PUSH1 0x1 PUSH1 0x1 PUSH1 0xA0 SHL SUB AND DUP7 PUSH2 0x1229 JUMP JUMPDEST DUP3 ISZERO PUSH2 0x1487 JUMPI PUSH1 0x9 SLOAD PUSH2 0x1487 SWAP1 ADDRESS SWAP1 PUSH1 0x1 PUSH1 0x1 PUSH1 0xA0 SHL SUB AND DUP6 PUSH2 0x1229 JUMP JUMPDEST DUP2 ISZERO PUSH2 0x14A5 JUMPI PUSH1 0xA SLOAD PUSH2 0x14A5 SWAP1 ADDRESS SWAP1 PUSH1 0x1 PUSH1 0x1 PUSH1 0xA0 SHL SUB AND DUP5 PUSH2 0x1229 JUMP JUMPDEST DUP1 ISZERO PUSH2 0x14C3 JUMPI PUSH1 0xB SLOAD PUSH2 0x14C3 SWAP1 ADDRESS SWAP1 PUSH1 0x1 PUSH1 0x1 PUSH1 0xA0 SHL SUB AND DUP4 PUSH2 0x1229 JUMP JUMPDEST PUSH1 0x40 DUP1 MLOAD DUP6 DUP2 MSTORE PUSH1 0x20 DUP2 ADD DUP6 SWAP1 MSTORE SWAP1 DUP2 ADD DUP4 SWAP1 MSTORE PUSH1 0x60 DUP2 ADD DUP3 SWAP1 MSTORE PUSH32 0x5B3735D487E9342FBCF11DF79C2146F60FFABADB4D2E31CED107FE4346CD21EF SWAP1 PUSH1 0x80 ADD PUSH1 0x40 MLOAD DUP1 SWAP2 SUB SWAP1 LOG1 POP POP POP POP POP JUMP JUMPDEST PUSH1 0x5 SLOAD PUSH1 0x1 PUSH1 0xA0 SHL SWAP1 DIV PUSH1 0xFF AND PUSH2 0x5D0 JUMPI PUSH1 0x40 MLOAD PUSH3 0x461BCD PUSH1 0xE5 SHL DUP2 MSTORE PUSH1 0x20 PUSH1 0x4 DUP3 ADD MSTORE PUSH1 0x14 PUSH1 0x24 DUP3 ADD MSTORE PUSH20 0x14185D5CD8589B194E881B9BDD081C185D5CD959 PUSH1 0x62 SHL PUSH1 0x44 DUP3 ADD MSTORE PUSH1 0x64 ADD PUSH2 0x62D JUMP JUMPDEST DUP1 CALLDATALOAD PUSH1 0x1 PUSH1 0x1 PUSH1 0xA0 SHL SUB DUP2 AND DUP2 EQ PUSH2 0x1579 JUMPI PUSH1 0x0 DUP1 REVERT JUMPDEST SWAP2 SWAP1 POP JUMP JUMPDEST PUSH1 0x0 PUSH1 0x20 DUP3 DUP5 SUB SLT ISZERO PUSH2 0x1590 JUMPI PUSH1 0x0 DUP1 REVERT JUMPDEST PUSH2 0x1599 DUP3 PUSH2 0x1562 JUMP JUMPDEST SWAP4 SWAP3 POP POP POP JUMP JUMPDEST PUSH1 0x0 PUSH1 0x20 DUP1 DUP4 MSTORE DUP4 MLOAD DUP1 DUP3 DUP6 ADD MSTORE PUSH1 0x0 JUMPDEST DUP2 DUP2 LT ISZERO PUSH2 0x15CD JUMPI DUP6 DUP2 ADD DUP4 ADD MLOAD DUP6 DUP3 ADD PUSH1 0x40 ADD MSTORE DUP3 ADD PUSH2 0x15B1 JUMP JUMPDEST POP PUSH1 0x0 PUSH1 0x40 DUP3 DUP7 ADD ADD MSTORE PUSH1 0x40 PUSH1 0x1F NOT PUSH1 0x1F DUP4 ADD AND DUP6 ADD ADD SWAP3 POP POP POP SWAP3 SWAP2 POP POP JUMP JUMPDEST PUSH1 0x0 DUP1 PUSH1 0x40 DUP4 DUP6 SUB SLT ISZERO PUSH2 0x1601 JUMPI PUSH1 0x0 DUP1 REVERT JUMPDEST PUSH2 0x160A DUP4 PUSH2 0x1562 JUMP JUMPDEST SWAP5 PUSH1 0x20 SWAP4 SWAP1 SWAP4 ADD CALLDATALOAD SWAP4 POP POP POP JUMP JUMPDEST PUSH1 0x0 DUP1 PUSH1 0x0 PUSH1 0x60 DUP5 DUP7 SUB SLT ISZERO PUSH2 0x162D JUMPI PUSH1 0x0 DUP1 REVERT JUMPDEST PUSH2 0x1636 DUP5 PUSH2 0x1562 JUMP JUMPDEST SWAP3 POP PUSH2 0x1644 PUSH1 0x20 DUP6 ADD PUSH2 0x1562 JUMP JUMPDEST SWAP2 POP PUSH1 0x40 DUP5 ADD CALLDATALOAD SWAP1 POP SWAP3 POP SWAP3 POP SWAP3 JUMP JUMPDEST PUSH1 0x0 PUSH1 0x20 DUP3 DUP5 SUB SLT ISZERO PUSH2 0x1666 JUMPI PUSH1 0x0 DUP1 REVERT JUMPDEST POP CALLDATALOAD SWAP2 SWAP1 POP JUMP JUMPDEST PUSH1 0x0 DUP1 PUSH1 0x40 DUP4 DUP6 SUB SLT ISZERO PUSH2 0x1680 JUMPI PUSH1 0x0 DUP1 REVERT JUMPDEST POP POP DUP1 CALLDATALOAD SWAP3 PUSH1 0x20 SWAP1 SWAP2 ADD CALLDATALOAD SWAP2 POP JUMP JUMPDEST PUSH1 0x0 DUP1 PUSH1 0x40 DUP4 DUP6 SUB SLT ISZERO PUSH2 0x16A2 JUMPI PUSH1 0x0 DUP1 REVERT JUMPDEST PUSH2 0x16AB DUP4 PUSH2 0x1562 JUMP JUMPDEST SWAP2 POP PUSH1 0x20 DUP4 ADD CALLDATALOAD DUP1 ISZERO ISZERO DUP2 EQ PUSH2 0x16C0 JUMPI PUSH1 0x0 DUP1 REVERT JUMPDEST DUP1 SWAP2 POP POP SWAP3 POP SWAP3 SWAP1 POP JUMP JUMPDEST PUSH1 0x0 DUP1 PUSH1 0x0 DUP1 PUSH1 0x80 DUP6 DUP8 SUB SLT ISZERO PUSH2 0x16E1 JUMPI PUSH1 0x0 DUP1 REVERT JUMPDEST POP POP DUP3 CALLDATALOAD SWAP5 PUSH1 0x20 DUP5 ADD CALLDATALOAD SWAP5 POP PUSH1 0x40 DUP5 ADD CALLDATALOAD SWAP4 PUSH1 0x60 ADD CALLDATALOAD SWAP3 POP SWAP1 POP JUMP JUMPDEST PUSH1 0x0 DUP1 PUSH1 0x0 DUP1 PUSH1 0x80 DUP6 DUP8 SUB SLT ISZERO PUSH2 0x1713 JUMPI PUSH1 0x0 DUP1 REVERT JUMPDEST PUSH2 0x171C DUP6 PUSH2 0x1562 JUMP JUMPDEST SWAP4 POP PUSH2 0x172A PUSH1 0x20 DUP7 ADD PUSH2 0x1562 JUMP JUMPDEST SWAP3 POP PUSH2 0x1738 PUSH1 0x40 DUP7 ADD PUSH2 0x1562 JUMP JUMPDEST SWAP2 POP PUSH2 0x1746 PUSH1 0x60 DUP7 ADD PUSH2 0x1562 JUMP JUMPDEST SWAP1 POP SWAP3 SWAP6 SWAP2 SWAP5 POP SWAP3 POP JUMP JUMPDEST PUSH1 0x0 DUP1 PUSH1 0x40 DUP4 DUP6 SUB SLT ISZERO PUSH2 0x1764 JUMPI PUSH1 0x0 DUP1 REVERT JUMPDEST PUSH2 0x176D DUP4 PUSH2 0x1562 JUMP JUMPDEST SWAP2 POP PUSH2 0x177B PUSH1 0x20 DUP5 ADD PUSH2 0x1562 JUMP JUMPDEST SWAP1 POP SWAP3 POP SWAP3 SWAP1 POP JUMP JUMPDEST PUSH1 0x1 DUP2 DUP2 SHR SWAP1 DUP3 AND DUP1 PUSH2 0x1798 JUMPI PUSH1 0x7F DUP3 AND SWAP2 POP JUMPDEST PUSH1 0x20 DUP3 LT DUP2 SUB PUSH2 0x17B8 JUMPI PUSH4 0x4E487B71 PUSH1 0xE0 SHL PUSH1 0x0 MSTORE PUSH1 0x22 PUSH1 0x4 MSTORE PUSH1 0x24 PUSH1 0x0 REVERT JUMPDEST POP SWAP2 SWAP1 POP JUMP JUMPDEST PUSH4 0x4E487B71 PUSH1 0xE0 SHL PUSH1 0x0 MSTORE PUSH1 0x11 PUSH1 0x4 MSTORE PUSH1 0x24 PUSH1 0x0 REVERT JUMPDEST DUP1 DUP3 ADD DUP1 DUP3 GT ISZERO PUSH2 0x574 JUMPI PUSH2 0x574 PUSH2 0x17BE JUMP JUMPDEST DUP1 DUP3 MUL DUP2 ISZERO DUP3 DUP3 DIV DUP5 EQ OR PUSH2 0x574 JUMPI PUSH2 0x574 PUSH2 0x17BE JUMP JUMPDEST PUSH1 0x0 DUP3 PUSH2 0x181B JUMPI PUSH4 0x4E487B71 PUSH1 0xE0 SHL PUSH1 0x0 MSTORE PUSH1 0x12 PUSH1 0x4 MSTORE PUSH1 0x24 PUSH1 0x0 REVERT JUMPDEST POP DIV SWAP1 JUMP JUMPDEST DUP2 DUP2 SUB DUP2 DUP2 GT ISZERO PUSH2 0x574 JUMPI PUSH2 0x574 PUSH2 0x17BE JUMP INVALID LOG2 PUSH5 0x6970667358 0x22 SLT KECCAK256 0xAC EXTCODEHASH CREATE2 DUP13 PUSH21 0xBCA86F434E4CCE59482D78C414094DBA689067CBE3 0xC9 INVALID LOG1 PUSH1 0x16 SWAP1 PUSH5 0x736F6C6343 STOP ADDMOD SGT STOP CALLER "},"methodIdentifiers":{"FEE_DENOMINATOR()":"d73792a9","MAX_FEE()":"bc063e1a","allowance(address,address)":"dd62ed3e","approve(address,uint256)":"095ea7b3","balanceOf(address)":"70a08231","burn(uint256)":"42966c68","decimals()":"313ce567","decreaseAllowance(address,uint256)":"a457c2d7","developmentPool()":"811be779","developmentPoolPercent()":"c3c27578","increaseAllowance(address,uint256)":"39509351","isExemptFromFee(address)":"0184a8c3","isTradingPair(address)":"e3663d6c","liquidityPool()":"665a11ca","liquidityPoolPercent()":"f729f749","name()":"06fdde03","owner()":"8da5cb5b","pause()":"8456cb59","paused()":"5c975abb","renounceOwnership()":"715018a6","setFeeExemption(address,bool)":"751fd179","setTradingPair(address,bool)":"8cda6649","stakingPool()":"0c56ae3b","stakingPoolPercent()":"f29a3357","symbol()":"95d89b41","totalSupply()":"18160ddd","tradingFee()":"56f43352","transfer(address,uint256)":"a9059cbb","transferFee()":"acb2ad6f","transferFrom(address,address,uint256)":"23b872dd","transferOwnership(address)":"f2fde38b","treasuryPool()":"48df5829","treasuryPoolPercent()":"d7e225b0","unpause()":"3f4ba83a","updateDistribution(uint256,uint256,uint256,uint256)":"a1546687","updateFees(uint256,uint256)":"6db79437","updatePools(address,address,address,address)":"d17812b8"}}}}}