{
  "_format": "hh-sol-artifact-1",
  "contractName": "TTXStaking",
  "sourceName": "contracts/TTXStaking.sol",
  "abi": [
    {
      "inputs": [
        {
          "internalType": "address",
          "name": "_ttxToken",
          "type": "address"
        }
      ],
      "stateMutability": "nonpayable",
      "type": "constructor"
    },
    {
      "anonymous": false,
      "inputs": [
        {
          "indexed": true,
          "internalType": "address",
          "name": "previousOwner",
          "type": "address"
        },
        {
          "indexed": true,
          "internalType": "address",
          "name": "newOwner",
          "type": "address"
        }
      ],
      "name": "OwnershipTransferred",
      "type": "event"
    },
    {
      "anonymous": false,
      "inputs": [
        {
          "indexed": false,
          "internalType": "uint256",
          "name": "amount",
          "type": "uint256"
        }
      ],
      "name": "RewardAdded",
      "type": "event"
    },
    {
      "anonymous": false,
      "inputs": [
        {
          "indexed": true,
          "internalType": "address",
          "name": "user",
          "type": "address"
        },
        {
          "indexed": false,
          "internalType": "uint256",
          "name": "reward",
          "type": "uint256"
        }
      ],
      "name": "RewardClaimed",
      "type": "event"
    },
    {
      "anonymous": false,
      "inputs": [
        {
          "indexed": true,
          "internalType": "address",
          "name": "user",
          "type": "address"
        },
        {
          "indexed": false,
          "internalType": "uint256",
          "name": "amount",
          "type": "uint256"
        },
        {
          "indexed": false,
          "internalType": "uint256",
          "name": "lockPeriod",
          "type": "uint256"
        }
      ],
      "name": "Staked",
      "type": "event"
    },
    {
      "anonymous": false,
      "inputs": [
        {
          "indexed": true,
          "internalType": "address",
          "name": "user",
          "type": "address"
        },
        {
          "indexed": false,
          "internalType": "uint256",
          "name": "amount",
          "type": "uint256"
        }
      ],
      "name": "Unstaked",
      "type": "event"
    },
    {
      "inputs": [],
      "name": "LOCK_180_DAYS",
      "outputs": [
        {
          "internalType": "uint256",
          "name": "",
          "type": "uint256"
        }
      ],
      "stateMutability": "view",
      "type": "function"
    },
    {
      "inputs": [],
      "name": "LOCK_30_DAYS",
      "outputs": [
        {
          "internalType": "uint256",
          "name": "",
          "type": "uint256"
        }
      ],
      "stateMutability": "view",
      "type": "function"
    },
    {
      "inputs": [],
      "name": "LOCK_90_DAYS",
      "outputs": [
        {
          "internalType": "uint256",
          "name": "",
          "type": "uint256"
        }
      ],
      "stateMutability": "view",
      "type": "function"
    },
    {
      "inputs": [],
      "name": "NO_LOCK",
      "outputs": [
        {
          "internalType": "uint256",
          "name": "",
          "type": "uint256"
        }
      ],
      "stateMutability": "view",
      "type": "function"
    },
    {
      "inputs": [
        {
          "internalType": "uint256",
          "name": "amount",
          "type": "uint256"
        }
      ],
      "name": "addReward",
      "outputs": [],
      "stateMutability": "nonpayable",
      "type": "function"
    },
    {
      "inputs": [],
      "name": "claimReward",
      "outputs": [],
      "stateMutability": "nonpayable",
      "type": "function"
    },
    {
      "inputs": [
        {
          "internalType": "address",
          "name": "account",
          "type": "address"
        }
      ],
      "name": "earned",
      "outputs": [
        {
          "internalType": "uint256",
          "name": "",
          "type": "uint256"
        }
      ],
      "stateMutability": "view",
      "type": "function"
    },
    {
      "inputs": [
        {
          "internalType": "address",
          "name": "account",
          "type": "address"
        }
      ],
      "name": "getUserInfo",
      "outputs": [
        {
          "internalType": "uint256",
          "name": "stakedAmount",
          "type": "uint256"
        },
        {
          "internalType": "uint256",
          "name": "pendingReward",
          "type": "uint256"
        },
        {
          "internalType": "uint256",
          "name": "lockEndTime",
          "type": "uint256"
        },
        {
          "internalType": "uint256",
          "name": "multiplier",
          "type": "uint256"
        }
      ],
      "stateMutability": "view",
      "type": "function"
    },
    {
      "inputs": [],
      "name": "lastUpdateTime",
      "outputs": [
        {
          "internalType": "uint256",
          "name": "",
          "type": "uint256"
        }
      ],
      "stateMutability": "view",
      "type": "function"
    },
    {
      "inputs": [
        {
          "internalType": "address",
          "name": "",
          "type": "address"
        }
      ],
      "name": "lockMultiplier",
      "outputs": [
        {
          "internalType": "uint256",
          "name": "",
          "type": "uint256"
        }
      ],
      "stateMutability": "view",
      "type": "function"
    },
    {
      "inputs": [],
      "name": "owner",
      "outputs": [
        {
          "internalType": "address",
          "name": "",
          "type": "address"
        }
      ],
      "stateMutability": "view",
      "type": "function"
    },
    {
      "inputs": [],
      "name": "renounceOwnership",
      "outputs": [],
      "stateMutability": "nonpayable",
      "type": "function"
    },
    {
      "inputs": [],
      "name": "rewardPerToken",
      "outputs": [
        {
          "internalType": "uint256",
          "name": "",
          "type": "uint256"
        }
      ],
      "stateMutability": "view",
      "type": "function"
    },
    {
      "inputs": [],
      "name": "rewardPerTokenStored",
      "outputs": [
        {
          "internalType": "uint256",
          "name": "",
          "type": "uint256"
        }
      ],
      "stateMutability": "view",
      "type": "function"
    },
    {
      "inputs": [],
      "name": "rewardPool",
      "outputs": [
        {
          "internalType": "uint256",
          "name": "",
          "type": "uint256"
        }
      ],
      "stateMutability": "view",
      "type": "function"
    },
    {
      "inputs": [],
      "name": "rewardRate",
      "outputs": [
        {
          "internalType": "uint256",
          "name": "",
          "type": "uint256"
        }
      ],
      "stateMutability": "view",
      "type": "function"
    },
    {
      "inputs": [
        {
          "internalType": "uint256",
          "name": "_rewardRate",
          "type": "uint256"
        }
      ],
      "name": "setRewardRate",
      "outputs": [],
      "stateMutability": "nonpayable",
      "type": "function"
    },
    {
      "inputs": [
        {
          "internalType": "uint256",
          "name": "amount",
          "type": "uint256"
        },
        {
          "internalType": "uint256",
          "name": "lockPeriod",
          "type": "uint256"
        }
      ],
      "name": "stake",
      "outputs": [],
      "stateMutability": "nonpayable",
      "type": "function"
    },
    {
      "inputs": [
        {
          "internalType": "address",
          "name": "",
          "type": "address"
        }
      ],
      "name": "stakeLockEnd",
      "outputs": [
        {
          "internalType": "uint256",
          "name": "",
          "type": "uint256"
        }
      ],
      "stateMutability": "view",
      "type": "function"
    },
    {
      "inputs": [
        {
          "internalType": "address",
          "name": "",
          "type": "address"
        }
      ],
      "name": "stakes",
      "outputs": [
        {
          "internalType": "uint256",
          "name": "amount",
          "type": "uint256"
        },
        {
          "internalType": "uint256",
          "name": "timestamp",
          "type": "uint256"
        },
        {
          "internalType": "uint256",
          "name": "rewardDebt",
          "type": "uint256"
        }
      ],
      "stateMutability": "view",
      "type": "function"
    },
    {
      "inputs": [],
      "name": "totalStaked",
      "outputs": [
        {
          "internalType": "uint256",
          "name": "",
          "type": "uint256"
        }
      ],
      "stateMutability": "view",
      "type": "function"
    },
    {
      "inputs": [
        {
          "internalType": "address",
          "name": "newOwner",
          "type": "address"
        }
      ],
      "name": "transferOwnership",
      "outputs": [],
      "stateMutability": "nonpayable",
      "type": "function"
    },
    {
      "inputs": [],
      "name": "ttxToken",
      "outputs": [
        {
          "internalType": "contract IERC20",
          "name": "",
          "type": "address"
        }
      ],
      "stateMutability": "view",
      "type": "function"
    },
    {
      "inputs": [
        {
          "internalType": "uint256",
          "name": "amount",
          "type": "uint256"
        }
      ],
      "name": "unstake",
      "outputs": [],
      "stateMutability": "nonpayable",
      "type": "function"
    }
  ],
  "bytecode": "0x608060405266038d7ea4c6800060085534801561001b57600080fd5b5060405161110c38038061110c83398101604081905261003a9161011a565b610043336100ca565b600180556001600160a01b0381166100a15760405162461bcd60e51b815260206004820152601560248201527f496e76616c696420746f6b656e20616464726573730000000000000000000000604482015260640160405180910390fd5b600280546001600160a01b0319166001600160a01b03929092169190911790554260075561014a565b600080546001600160a01b038381166001600160a01b0319831681178455604051919092169283917f8be0079c531659141344cd1fd0a4f28419497f9722a3daafe3b4186f6b6457e09190a35050565b60006020828403121561012c57600080fd5b81516001600160a01b038116811461014357600080fd5b9392505050565b610fb3806101596000396000f3fe608060405234801561001057600080fd5b50600436106101575760003560e01c8063817b1cd2116100c3578063cd3daf9d1161007c578063cd3daf9d146102f1578063d789a531146102f9578063df136d6514610301578063e37c3a551461030a578063f29590aa14610314578063f2fde38b1461033457600080fd5b8063817b1cd2146102a957806382865218146102b25780638da5cb5b146102bc5780639e447fc6146102cd578063b88a802f146102e0578063c8f33c91146102e857600080fd5b8063715018a611610115578063715018a61461024857806374de4ec4146102505780637b0472f0146102635780637b0a47ee146102765780637c6e5db71461027f5780638141016e1461028957600080fd5b80628cc2621461015c57806316934fc4146101825780632e17de78146101cc578063425bcfdb146101e15780636386c1c71461020c57806366666aa91461023f575b600080fd5b61016f61016a366004610e75565b610347565b6040519081526020015b60405180910390f35b6101b1610190366004610e75565b60036020526000908152604090208054600182015460029092015490919083565b60408051938452602084019290925290820152606001610179565b6101df6101da366004610ea5565b61041a565b005b6002546101f4906001600160a01b031681565b6040516001600160a01b039091168152602001610179565b61021f61021a366004610e75565b610658565b604080519485526020850193909352918301526060820152608001610179565b61016f60055481565b6101df6106dd565b6101df61025e366004610ea5565b6106f1565b6101df610271366004610ebe565b610800565b61016f60085481565b61016f62278d0081565b61016f610297366004610e75565b600a6020526000908152604090205481565b61016f60045481565b61016f62ed4e0081565b6000546001600160a01b03166101f4565b6101df6102db366004610ea5565b610aab565b6101df610ac7565b61016f60075481565b61016f610c9e565b61016f600081565b61016f60065481565b61016f6276a70081565b61016f610322366004610e75565b60096020526000908152604090205481565b6101df610342366004610e75565b610cfc565b6001600160a01b038116600081815260036020908152604080832081516060810183528154815260018201548185015260029091015481830152938352600a909152812054909190829061039c5760646103b6565b6001600160a01b0384166000908152600a60205260409020545b90508160400151606482670de0b6b3a76400006006546103d4610c9e565b6103de9190610ef6565b86516103ea9190610f0f565b6103f49190610f26565b6103fe9190610f0f565b6104089190610f26565b6104129190610f48565b949350505050565b610422610d72565b3361042b610c9e565b600655426007556001600160a01b038116156104675761044a81610347565b6001600160a01b0382166000908152600360205260409020600201555b600082116104af5760405162461bcd60e51b815260206004820152601060248201526f043616e6e6f7420756e7374616b6520360841b60448201526064015b60405180910390fd5b3360009081526003602052604090205482111561050e5760405162461bcd60e51b815260206004820152601a60248201527f496e73756666696369656e74207374616b656420616d6f756e7400000000000060448201526064016104a6565b336000908152600960205260409020544210156105635760405162461bcd60e51b8152602060048201526013602482015272151bdad95b9cc81cdd1a5b1b081b1bd8dad959606a1b60448201526064016104a6565b3360009081526003602052604081208054849290610582908490610ef6565b92505081905550816004600082825461059b9190610ef6565b909155505060025460405163a9059cbb60e01b8152336004820152602481018490526001600160a01b039091169063a9059cbb906044016020604051808303816000875af11580156105f1573d6000803e3d6000fd5b505050506040513d601f19601f820116820180604052508101906106159190610f5b565b5060405182815233907f0f5bb82176feb1b5e747e28471aa92156a04d9f3ab9f45f28e2d704232b93f759060200160405180910390a25061065560018055565b50565b6001600160a01b038116600090815260036020908152604080832081516060810183528154808252600183015494820194909452600290910154918101919091528291829182916106a887610347565b6001600160a01b0397909716600090815260096020908152604080832054600a90925290912054919890965090945092505050565b6106e5610dcb565b6106ef6000610e25565b565b600081116107375760405162461bcd60e51b815260206004820152601360248201527210d85b9b9bdd08185919080c081c995dd85c99606a1b60448201526064016104a6565b6002546040516323b872dd60e01b8152336004820152306024820152604481018390526001600160a01b03909116906323b872dd906064016020604051808303816000875af115801561078e573d6000803e3d6000fd5b505050506040513d601f19601f820116820180604052508101906107b29190610f5b565b5080600560008282546107c59190610f48565b90915550506040518181527fde88a922e0d3b88b24e9623efeb464919c6bf9f66857a65e2bfcf2ce87a9433d9060200160405180910390a150565b610808610d72565b33610811610c9e565b600655426007556001600160a01b0381161561084d5761083081610347565b6001600160a01b0382166000908152600360205260409020600201555b6000831161088e5760405162461bcd60e51b815260206004820152600e60248201526d043616e6e6f74207374616b6520360941b60448201526064016104a6565b81158061089d575062278d0082145b806108aa57506276a70082145b806108b7575062ed4e0082145b6108f95760405162461bcd60e51b8152602060048201526013602482015272125b9d985b1a59081b1bd8dac81c195c9a5bd9606a1b60448201526064016104a6565b6002546040516323b872dd60e01b8152336004820152306024820152604481018590526001600160a01b03909116906323b872dd906064016020604051808303816000875af1158015610950573d6000803e3d6000fd5b505050506040513d601f19601f820116820180604052508101906109749190610f5b565b503360009081526003602052604081208054859290610994908490610f48565b909155505033600090815260036020526040812042600190910155600480548592906109c1908490610f48565b90915550508115610a4e576109d68242610f48565b3360009081526009602052604090205562278cff198201610a0957336000908152600a60205260409020606e9055610a62565b6276a7008203610a2b57336000908152600a60205260409020607d9055610a62565b62ed4e008203610a4957336000908152600a60205260409020609690555b610a62565b336000908152600a60205260409020606490555b604080518481526020810184905233917f1449c6dd7851abc30abf37f57715f492010519147cc2652fbc38202c18a6ee90910160405180910390a250610aa760018055565b5050565b610ab3610dcb565b610abb610c9e565b60065542600755600855565b610acf610d72565b33610ad8610c9e565b600655426007556001600160a01b03811615610b1457610af781610347565b6001600160a01b0382166000908152600360205260409020600201555b3360009081526003602052604090206002015480610b6a5760405162461bcd60e51b81526020600482015260136024820152724e6f207265776172647320746f20636c61696d60681b60448201526064016104a6565b806005541015610bbc5760405162461bcd60e51b815260206004820152601860248201527f496e73756666696369656e742072657761726420706f6f6c000000000000000060448201526064016104a6565b33600090815260036020526040812060020181905560058054839290610be3908490610ef6565b909155505060025460405163a9059cbb60e01b8152336004820152602481018390526001600160a01b039091169063a9059cbb906044016020604051808303816000875af1158015610c39573d6000803e3d6000fd5b505050506040513d601f19601f82011682018060405250810190610c5d9190610f5b565b5060405181815233907f106f923f993c2149d49b4255ff723acafa1f2d94393f561d3eda32ae348f72419060200160405180910390a250506106ef60018055565b6000600454600003610cb1575060065490565b600454600854600754610cc49042610ef6565b610cce9190610f0f565b610ce090670de0b6b3a7640000610f0f565b610cea9190610f26565b600654610cf79190610f48565b905090565b610d04610dcb565b6001600160a01b038116610d695760405162461bcd60e51b815260206004820152602660248201527f4f776e61626c653a206e6577206f776e657220697320746865207a65726f206160448201526564647265737360d01b60648201526084016104a6565b61065581610e25565b600260015403610dc45760405162461bcd60e51b815260206004820152601f60248201527f5265656e7472616e637947756172643a207265656e7472616e742063616c6c0060448201526064016104a6565b6002600155565b6000546001600160a01b031633146106ef5760405162461bcd60e51b815260206004820181905260248201527f4f776e61626c653a2063616c6c6572206973206e6f7420746865206f776e657260448201526064016104a6565b600080546001600160a01b038381166001600160a01b0319831681178455604051919092169283917f8be0079c531659141344cd1fd0a4f28419497f9722a3daafe3b4186f6b6457e09190a35050565b600060208284031215610e8757600080fd5b81356001600160a01b0381168114610e9e57600080fd5b9392505050565b600060208284031215610eb757600080fd5b5035919050565b60008060408385031215610ed157600080fd5b50508035926020909101359150565b634e487b7160e01b600052601160045260246000fd5b81810381811115610f0957610f09610ee0565b92915050565b8082028115828204841417610f0957610f09610ee0565b600082610f4357634e487b7160e01b600052601260045260246000fd5b500490565b80820180821115610f0957610f09610ee0565b600060208284031215610f6d57600080fd5b81518015158114610e9e57600080fdfea2646970667358221220fe429265a2149371c112ab5964c92d9e67cc1b7384208ff7c3258afbcf867ded64736f6c63430008130033",
  "linkReferences": {},
  "deployedLinkReferences": {}
}